:100000000C94DA070C9421080C9421080C948C2988
:100010000C9421080C9421080C9421080C942108BC
:100020000C9421080C9421080C9474110C9447161C
:100030000C9404270C9421080C9421080C9421089A
:100040000C9421080C9421080C9421080C9421088C
:100050000C9421080C9483120C9421080C94210810
:100060000C9421080C9421080C9421080C9421086C
:100070000C9421080C9421080C9421080C9421085C
:100080000C9421080C9421080C9421080C9421084C
:100090000C9421080C9421080C9421080C9421083C
:1000A0000C9421080C9421080C94210805010902E4
:1000B000A10185020901A1000509190129081500FE
:1000C0002501950875018102050109300931158165
:1000D000257F95027508810609381581257F9501D0
:1000E00075088106050C0A38021581257F95017572
:1000F000088106C0C005010980A101850319012AF4
:10010000B700150126B700950175108100C0050CD8
:100110000901A101850419012AA002150126A002E6
:10012000950175108100C005010906A1018505052D
:100130000719E029E71500250195087501810205D9
:1001400007190029EF1500250195F07501810205B9
:10015000081901290595057501910295017503910D
:1001600001C00660FF0961A1010962150026FF00B8
:100170009520750881020963150026FF00952075FA
:10018000089102C005010906A101050719E029E748
:1001900015002501950875018102950175088101F9
:1001A0000507190029FF150026FF0095067508812F
:1001B000000508190129059505750191029501753C
:1001C000039101C0000000000000000000000000DA
:1001D000000000000000000000000000000000001F
:1001E000000000000000000000000000000000000F
:1001F00000000000000000000000000000000000FF
:1002000000000000000000000000000000000000EE
:100AA000000000000000000000000000002E001EFA
:100AB000001F0020002100220050004C0014001AEA
:100AC0000008001500170001532A00040016000753
:100AD0000009000A00006FE1001D611B00060019FB
:100AE000000500000035413400E10450006564E376
:100AF000000000000000002C004A002A004D000009
:100B0000002D00270026002500240023004F00317F
:100B100000130012000C0018001C0001533468334D
:100B2000420F000E000D000B000067E50038613732
:100B3000003600100011000000015830002F005155
:100B4000002961E2000000000000002B004B00289B
:100B5000004E00000001003A003B003C003D003E1A
:100B600000010001001E021F022F023002310201AB
:100B700000010020022102260227023500010001A7
:100B800000220223022F0030003502000001000184
:100B90000001000100C35C0100000000000000CA69
:100BA0005C0100C95C0100000044004300420041B8
:100BB0000040003F000100450025022600250024DA
:100BC000005200010001002E0223002200210051EA
:100BD0000001000100310020001F001E002402005F
:100BE0000001002E00270037000100C25C00000059
:100BF000000000C65C0100C55C01000000010001AE
:100C000000010001000100010001000100010001DC
:100C100000010001000100010001000100010001CC
:100C200000010001000100010001000100010001BC
:100C30000001000000010001000100F400010001BA
:100C400000000000000000010001000100010000A0
:100C5000000100010001000100010001000100018C
:100C600000010001000100010001000100AE0001CF
:100C7000000100010001000100010001000100ABC2
:100C800000AC0001000100000001000100A800AA62
:100C9000000100010000000000000001000100B69A
:100CA000000100000001000100010001000100013D
:100CB000000100010001000100010001000100012C
:100CC000000100010001000100010001000100011C
:100CD000000100010001000100010000000100010D
:100CE00000010001000100010000000000000001FF
:100CF00000010001000100000001000100010001ED
:100D000000010001000100010001000100010001DB
:100D100000010001000100010001000100010001CB
:100D200000010001000100010001000100010000BC
:100D300000010001000100010001000100000000AD
:100D40000000000100010001000100000000AF00F0
:100D50000000000000000000000000000000000093
:100D60000000000000000000000000000000000083
:100D70000000007E0F00D4FFFFFFC70000007800D6
:100D8000000000000000002A2B28000000000000E6
:100D90000000000000000000000029000000002CFE
:100DA0001E3420212224342627252E362D3738279D
:100DB0001E1F202122232425263333362E37381FA9
:100DC0000405060708090A0B0C0D0E0F101112136B
:100DD0001415161718191A1B1C1D2F3130232D3509
:100DE0000405060708090A0B0C0D0E0F101112134B
:100DF0001415161718191A1B1C1D2F3130354C7F6E
:100E00007F7F6162637F7F7F7F7F00000000000043
:100E100000000000000000000000000000000000D2
:100E200000000000000000000000000000000000C2
:100E300000000000000000000000000000000000B2
:100E400000000000000000000000000000000000A2
:100E50000000000000000000000000000000000092
:100E60000000000000000000000000000000000082
:100E70000000000000000000000000000000000072
:100E80000000000000000000000000000000000062
:100E90000000000000000000000000000000000052
:100EA0000000000000000000000000000000000042
:100EB0000000000000000000000000000000000032
:100EC0000000000000000000000000000000000022
:100ED0000000000000000000000000000000000012
:100EE0000000000000000000000000000000000002
:100EF000000000000000000000000000000000DA18
:100F00000281FFD9F1DB20A4A62EAF00A0C000A172
:100F1000C800AED580A81FD300408D14200000AEBD
:100F200009025B00030100A0FA09040000010301AB
:100F30000100092111010001224000070581030879
:100F40000001090401000203000000092111010051
:100F50000122220007058203200001070503032068
:100F60000001090402000103000000092111010031
:100F70000122B600070584032000011201100100C0
:100F8000000008FCA81DA20100010200010E03459B
:100F900000520047004F00350037000000100341A9
:100FA000004E0059004900590041004F0000000464
:100FB0000309040011241FBECFEFDAE0DEBFCDBF6E
:100FC00004B603FE27C08091FC049091FD04A0911B
:100FD000FE04B091FF048730904BA740B04BD1F492
:100FE0001092FC041092FD041092FE041092FF0473
:100FF00014BE84B7877F84BF0FB6F894A8958091FC
:101000006000886180936000109260000FBEE0E095
:10101000F8E3099511E0A0E0B1E0E4ECF5E502C0E9
:1010200005900D92AC38B107D9F724E0ACE8B1E0F7
:1010300001C01D92AC3FB207E1F70E94FA200C9468
:10104000A92A0C940000E8EDF0E080818E7F808377
:101050001092E2001092DA001092E100A0EEB0E0EF
:101060008C9181608C9380818F77808319BCA7EDF0
:10107000B0E08C918E7F8C9380818F7E80831092E4
:101080009D0408952091E4003091E50095E6A901C2
:101090002091EC00822F817020FF06C08091E80033
:1010A00080FF06C080E008952091E80022FD1AC06C
:1010B0008091C204882389F0853089F08091EB000B
:1010C00085FD0FC02091E4003091E50042175307E1
:1010D000F9F29150E1F684E0089582E0089583E00A
:1010E000089581E00895EF92FF920F931F93CF939D
:1010F0007C018B010E944208C82F811117C080918A
:10110000E80085FD0BC08091E8008E778093E800B1
:101110000E944208882399F3C82F08C0F7018191E3
:101120007F018093F1000150110949F78C2FCF9175
:101130001F910F91FF90EF9008958091C40487FF55
:1011400013C08091E80082FF06C08091E8008B7791
:101150008093E80004C08091C2048111F2CF089509
:101160008091C2048823D9F38091E80080FFF8CFF2
:101170008091E8008E77ECCF982F9093E900242F90
:10118000762F50E0891731F07091EC002091ED003E
:101190005091F00021FD07C09F5F973071F7809359
:1011A000E90081E008953091EB003E7F3093EB0041
:1011B0003091ED003D7F3093ED003091EB003160D8
:1011C0003093EB007093EC002093ED005093F0000F
:1011D0002091EE0027FDE0CF80E00895CF92DF92CE
:1011E000EF92FF920F931F93CF93DF93C8EDD0E060
:1011F00088818F7E8883E7EDF0E080818160808345
:1012000084E082BF81E080939D0488818E7F888303
:1012100002EE10E0F80110821092DA0081EEC82E82
:10122000D12CF601108288818F778883888180682D
:10123000888388818F7D888319BC1092C2041092A4
:10124000C3041092C1041092C00490EEE92EF12C58
:10125000F70180818B7F808388818160888342E071
:1012600060E080E00E94BC08F60180818E7F808370
:10127000F801808181608083808188608083F701AC
:1012800080818E7F8083888180618883DF91CF9188
:101290001F910F91FF90EF90DF90CF900895FC0188
:1012A0008091CA049091CB0486179707A0F061152E
:1012B000710529F49091E8009E779093E80090E002
:1012C0006115710551F4911108C08091E80082FF09
:1012D00034C080E00895BC01F2CF8091C20488231D
:1012E000C1F18530C1F18091E80083FD30C080916B
:1012F000E80082FDEACF8091E80080FFE1CF809195
:10130000F3002091F200382F6115710519F0283093
:10131000310558F091E02830310509F090E0209136
:10132000E8002E772093E800CBCF81918093F100E5
:10133000615071092F5F3F4FE7CF8091C20488232E
:1013400041F0853041F08091E80083FFBECF81E01D
:10135000089582E0089583E0089580E008958091E3
:101360009F0408959C014FB7F89480912F029091AB
:101370003002A0913102B09132024FBF821B930B19
:1013800008952FB7F89460912F02709130028091E8
:101390003102909132022FBF08952091250122231E
:1013A000C9F02091450227FF15C0E62FE695E69586
:1013B000E695EE31D8F4E80FF92FF11D677021E0C2
:1013C00030E001C0220F6A95EAF720958281282338
:1013D00022830895FC01329608962191621303C07E
:1013E000DF0111971C92E817F907B9F708952091CA
:1013F00025012223C1F02091450227FF14C0E62FCA
:10140000E695E695E695EE31F8F4E80FF92FF11D33
:10141000677021E030E001C0220F6A95EAF782810F
:10142000822B82830895FC0132962FEF30E04191A8
:10143000641751F02F3F19F4411101C0232F3F5F72
:101440003630A9F72F3F09F40895820F911D27FD2B
:101450009A95FC01628308958091290290912A0255
:10146000892B90912802892B80938E01E09147026D
:10147000F0914802309799F090912501992349F015
:101480009091450297FF05C080938F0185E080937E
:101490008E010280F381E02D8EE891E00994089599
:1014A00027E0929F800D1124982F9770869586953E
:1014B000869525E0829FF0011124EF50FE4F50E009
:1014C00040E080E0219130E0092E02C0369527955A
:1014D0000A94E2F721703327042E01C0220F0A94E8
:1014E000EAF7822B4F5F5F4F4530510559F708955A
:1014F00027E0929F800D1124982F977041E001C042
:10150000440F9A95EAF786958695869595E0899F8A
:10151000F0011124EF50FE4F90E080E070E0519117
:10152000DF0111979B01082E02C0369527950A947A
:10153000E2F7217021952527242325272C93019656
:101540008530910561F708958091F0019091BF0178
:10155000981301C008958F5F8770FACF882341F0F8
:101560008095909129028923809329020C942C0A5A
:101570000895882339F090912902982B909329029D
:101580000C942C0A08952091B5013091B6012817CA
:10159000390771F09093B6018093B501E09147024D
:1015A000F0914802309721F00084F185E02D0994F4
:1015B00008952091B3013091B4012817390771F0D3
:1015C0009093B4018093B301E0914702F0914802F7
:1015D000309721F00680F781E02D09940895E0917D
:1015E0004702F0914802309721F00190F081E02D00
:1015F000099480E00895613092E0790710F060E08E
:1016000072E0FB01E559FD4F90819817B9F0808396
:1016100085E0769567958A95E1F721E030E002C094
:10162000220F331F6A95E2F780916D0490916E044A
:10163000822B932B90936E0480936D0408954091B8
:101640007F04803F59F48091800487FF0DC0109281
:10165000800441110BC010927A0408C0813F81F4CC
:101660008091800418169CF3442381F080918104BA
:1016700090918204892B09F05AC010927704089542
:10168000823F49F447FFF0CF10927F04809180049D
:101690008111ECCFE0CF833F19F41416ACF3E4CF03
:1016A00090918104893F29F41916F4F6109281046F
:1016B000DBCF8A3F19F497FFD7CFF8CF9091820400
:1016C0008B3F29F497FFD0CF10928204CDCF8C3F6F
:1016D00019F41916CCF3C8CF9CE0980F953090F40C
:1016E000845F990B21E030E0B90102C0660F771FDB
:1016F0008A95E2F7CB01809590917E0489238093AF
:101700007E04B2CF8D3F31F48091B8018E7F8093FB
:10171000B801AACF8E3F21F48091B8018D7FF7CF19
:101720008F3F09F0A1CF8091B8018B7FF0CF089552
:101730008091B80180FD16C081FD16C082FD16C0E3
:10174000809177048823A1F0883280F428E0829F7A
:10175000C001112468E270E00E942B2A862F672BBB
:1017600039F0089582E0089584E0089588E00895AE
:1017700081E008958091B80180FD16C081FD16C0FA
:1017800082FD18C080917A04882391F08C3390F404
:1017900023E2829FC00111246CE370E00E942B2A97
:1017A000862F672B49F0089588E0089581E1089518
:1017B00085E0089583E2089581E00895803F31F443
:1017C0000E94BA0B8195809380040895813F19F49B
:1017D0000E94BA0BF8CF823F31F40E94BA0B819578
:1017E00080937F040895833F19F40E94BA0BF8CFC9
:1017F000893F29F40E94980B8093810408958A3FC1
:1018000021F40E94980B8195F7CF8B3F31F40E9411
:10181000980B81958093820408958C3F19F40E945F
:10182000980BF8CF9CE0980F953070F4845F990B7B
:1018300021E030E001C0220F8A95EAF780917E0412
:10184000822B80937E0408958D3F31F48091B801FE
:1018500081608093B80108958E3F21F48091B80192
:101860008260F7CF8F3FB9F78091B8018460F1CFE4
:10187000F894E82FE295EF70F0E031A1282F2F7057
:1018800081E090E001C0880F2A95EAF7982F9095A3
:10189000932391A392A1892B82A378940895909188
:1018A000450292FF06C0282F28712830F9F4877F5F
:1018B000846093FF06C0282F28712831F1F4877EB9
:1018C00084612091460220FF06C0382F38713830DD
:1018D000D9F4877F816021FF06C0282F2871283125
:1018E000D1F4877E816194FD877E0895282F24712D
:1018F0002430F9F68B7F8860DCCF282F24712431C7
:1019000001F78B7E8861DDCF382F3171313019F7C7
:101910008E7F8860E0CF282F2171213121F78E7EC4
:101920008861E1CF2F923F924F925F926F927F92A8
:101930008F929F92AF92BF92CF92DF92EF92FF92DF
:101940000F931F93CF93DF9300D00F92CDB7DEB7E5
:101950002983282F30E0922F88279B838A83C42EE7
:10196000D12C3C016C0C7D1C2C0190E8490E511CC3
:101970004C0C5D1C43018B0152011B01E9812E0EB1
:10198000311CF12CE12CF80180818152990B28E166
:10199000289FF001299FF00D1124EE0DFF1DEB5340
:1019A000FE4F8491B4016E0D7F1D0E94FB0AF80169
:1019B00080818152990B28E1289FF001299FF00D29
:1019C0001124EE0DFF1DEF52FE4F8491B5016E0DF7
:1019D0007F1D0E94FB0A3FEFE31AF30A8CE0E81632
:1019E000F10489F69CE0890E911C0F5F1F4FECE01B
:1019F000AE0EB11C2016310609F0C3CF2981FCE0E0
:101A00002F9FC0011124680E791E480E591EEA80CE
:101A1000FB8010E000E0E4ECF1E08491B7010E946B
:101A2000FB0AE4ECF1E08491B301600F711F0E94A6
:101A3000FB0AE4ECF1E08491B70160587F4F0E940B
:101A4000FB0AE4ECF1E08491B201600F711F0E9487
:101A5000FB0A0F5F1F4FFFEFEF1AFF0AC016D106F8
:101A6000D1F60F900F900F90DF91CF911F910F91B2
:101A7000FF90EF90DF90CF90BF90AF909F908F90AE
:101A80007F906F905F904F903F902F900895CF92EE
:101A9000DF92EF92FF920F931F93CF93DF936C012E
:101AA0007B0164E670E088E70E94F927EC0197FD6E
:101AB00012C010E000E0F601E00FF11F849164E62F
:101AC00070E00E945528EC01892B29F40F5F1F4F0D
:101AD0000E151F0581F70E94D828CE01DF91CF9106
:101AE0001F910F91FF90EF90DF90CF900895CF93CB
:101AF000C0917304809176048823D1F00E94C109BB
:101B0000605A75418F4F9F4F60936F0470937004BC
:101B10008093710490937204C11108C062E070E078
:101B20008DE49DE00E94470D892B29F0C09173043C
:101B30008C2FCF91089581E080937304F7CFCF93DA
:101B400084E090E00E94672AC82F82E290E00E9421
:101B5000672A982F8C2FCF9108950F931F93CF93BF
:101B6000DF93C42FD0E0CC0FDD1F2EE0629FC00DAD
:101B7000D11D112438EA839FC00DD11D1124CE013F
:101B800087960E94672A082F10E0102F0027CE01A9
:101B900088960E94672A9801282BC901DF91CF916E
:101BA0001F910F910895462F843038F47C3028F42B
:101BB000673018F4672F0C94AD0D90E080E0089525
:101BC000CF93DF930E94D30DEC018238910581F110
:101BD000B0F58133910509F491C020F58932910562
:101BE00009F485C08A9709F490C0C11520E5D20791
:101BF00008F0A7C0C11530E4D30708F0F6C0CF3B0A
:101C0000D10508F089C0C83AD10508F0E1C0C53A4D
:101C1000D10508F0D5C0C430D105F8F4C130D105E4
:101C2000E1F040C08533910509F45AC0C997E9F63F
:101C300080914502837089F0C0EED0E00EC0833EF3
:101C4000910599F170F4803E910501F1823E910574
:101C500061F68091450282FD21C0CE01DF91CF91D6
:101C60000895863E910561F1873E910571F1843EAC
:101C7000910509F0BACF8091460281FFEECF8091A5
:101C80004502C7EED0E084FD0DC0E7CF809145024C
:101C900080FDFEC09091460290FFDFCFC3EED0E002
:101CA00084FFDBCFD0E0C0E0D8CF8091450282FD39
:101CB000F2C09091460290FDBFCF84FFCECFF2CF0D
:101CC0008091450283FDDDCFC8CF8091450283FD21
:101CD000E5C09091460291FFF0CFC4EED0E0BDCFB9
:101CE0008091450285FFB9CFC9E2D0E0B6CF80919F
:101CF000450285FFB2CFC5E3D0E0AFCF809145026A
:101D000086FFABCFCAE2D0E0A8CF8091450286FF24
:101D1000A4CFC1E3D0E0A1CFCF3FD10509F058F463
:101D2000C03FD10508F05FC0CE01815E91090797E1
:101D300008F493CFB7CFC11540E2D40708F48DCF94
:101D4000B1CFC11584E5D807A0F4C11593E5D90733
:101D500008F07CC0C11522E5D20708F066C0C115A5
:101D600031E5D30708F444C0DC2FCC27C16FD06A1B
:101D700074CFC1154AE5D40778F4C11589E5D807B1
:101D800008F078C0C11598E5D90708F48BCFDC2F8F
:101D9000CC27C06FD06A61CFCE019056811590429A
:101DA00008F080CF8D2F8F710E944F0C90E0982FFC
:101DB000882788279F719C012C2BE901D0624DCF89
:101DC000C55AD0E0CC5BDE4FC881D0E0D06445CFAF
:101DD000C85AD0E0CC0FDD1FC95BDE4F0990D88117
:101DE000C02DD4643ACFD06538CFDF70D06A35CFFC
:101DF000CE0164E0969587956A95E1F783702C2F64
:101E000026952695237040E2249F90011124382BBB
:101E10008C2F8370C1E0D0E002C0CC0FDD1F8A950B
:101E2000E2F7C22BD32BDC6818CFCE018370992741
:101E300021E030E002C0220F331F8A95E2F7C695F9
:101E4000C69580E2C89FE0011124EBCFCE018370DC
:101E5000992721E030E002C0220F331F8A95E2F774
:101E6000C695C69590E2C99FE0011124C22BD32BE1
:101E7000DA68F3CE8C2F8F700E944F0C34E0D69529
:101E8000C7953A95E1F7CF709C2FEC01D069E5CE6C
:101E9000C9E3D0E0E2CEC2EED0E0DFCEC6EED0E0C5
:101EA000DCCEBF92CF92DF92EF92FF920F931F93FF
:101EB000CF93DF938C01C090CF04D090D004E090FA
:101EC000D104F090D20480912B0290912C02A09129
:101ED0002D02B0912E02C82AD92AEA2AFB2ACFE184
:101EE000D0E0BC2ED701C6010C2E04C0B695A79534
:101EF000979587950A94D2F780FD0EC0219788F7B1
:101F0000B12C8B2DDF91CF911F910F91FF90EF900E
:101F1000DF90CF90BF900895B8018C2F0E94E00D04
:101F2000019761F3EECFCF93DF93EC010E94510F45
:101F3000BE01DF91CF910C94E00D0E94930F292FE9
:101F40002F7092959F7092509E3078F4E92FF0E0B8
:101F5000E555F54D0C943F2A803F19F020F4883E5A
:101F600020F481E00895843FE1F380E00895883E05
:101F7000C0F3813FD1F7F5CF822F86958695869560
:101F800008956F927F928F929F92AF92BF92CF925D
:101F9000DF92EF92FF920F931F93CF93DF938DEA1F
:101FA000C82E8AE0D82E9DEDE92EF12CE701C85A03
:101FB000D10936011BC0F50185909490692DC801A7
:101FC0000E94752A682DC80101960E94752A82E038
:101FD000A80EB11C0E5F1F4FC017D10761F78EE02E
:101FE000680E711C2E96CE15DF0529F08E010E505D
:101FF00011095301E0CF7E0188EAE80EF11C88EA5E
:10200000C80ED11C8DE7E81683E0F80679F6DF915B
:10201000CF911F910F91FF90EF90DF90CF90BF90E5
:10202000AF909F908F907F906F900895CF93DF93A4
:10203000C7ECD2E060E0CE010E94752A2196C1155E
:1020400084E0D807B9F7DF91CF910895CF93DF935C
:1020500000D00F92CDB7DEB79091C204943011F545
:1020600089837B836A839093E9008FEF9091E800E6
:10207000815095FD06C095ED9A95F1F7000081110C
:10208000F5CF8091E80085FF0DC050E040E063E0AF
:1020900070E0CE0101960E9473088091E8008E776F
:1020A0008093E8000F900F900F90DF91CF910895EB
:1020B000BC0184E00C942610BC0183E00C94261033
:1020C0009C0184E08093E9009FEF8091E8009150AB
:1020D00085FD06C085ED8A95F1F700009111F5CFD9
:1020E0008091E80085FF0CC050E040E066E070E0C1
:1020F000C9010E9473088091E8008E778093E80000
:102100000895CF93DF93EC01809125018823B1F1ED
:102110008091450287FF32C060E284E08093E9004D
:102120008FEF9091E800815095FD06C095ED9A954E
:10213000F1F700008111F5CF8091E80085FF1BC009
:102140008091250170E050E040E0811104C050E032
:1021500040E068E070E0CE010E9473088091E800E2
:102160008E778093E80080E2FE01A0EAB4E001905F
:102170000D928A95E1F7DF91CF91089568E081E0B3
:10218000CDCF81E08093E00080E28093D800109270
:10219000C9008FE19EE40197F1F700C0000087E0DD
:1021A00090EBDC018093FC049093FD04A093FE046B
:1021B000B093FF0488E19CE00FB6F894A895809353
:1021C00060000FBE90936000FFCF8091B20181113B
:1021D00018C088EC9091E30097FD10C0EFE3FCE994
:1021E0003197F1F700C000008150A1F782E08093A1
:1021F000B2010E9423081092C20403C081E08093C0
:10220000B20181E09091B201913011F080E0089527
:1022100008956AEE7EEF90E080E00E94932A60E0ED
:1022200082E090E00E94752A60E083E090E00E94E6
:10223000752A10922B0210922C0210922D021092ED
:102240002E0260E084E090E00E94752A60E082E265
:1022500090E00E94752A60E085E090E00E94752A77
:1022600060E086E090E00E94752A6FEF87E090E0E2
:102270000E94752A40E050E0BA0188E090E00E9498
:10228000872A60E08DE090E00E94752A40E050E0EF
:10229000BA0188E190E00E94872A60E087E190E03F
:1022A0000E94752A40E050E0BA018CE190E00E9463
:1022B000872A70E060E080E290E00E94932A40E08C
:1022C00050E0BA0188E190E00E94872A40E050E0A7
:1022D000BA018FE090E00E94872A40E050E0BA0106
:1022E00083E190E00C94872A1F920F920FB60F9211
:1022F00011242F933F934F935F936F937F938F930B
:102300009F93AF93BF93EF93FF938091E10082FF80
:1023100009C08091E20082FF05C08091E1008B7FBF
:102320008093E1008091DA0080FF24C08091D80082
:1023300080FF20C08091DA008E7F8093DA00809148
:10234000D90080FF9BC080E189BD82E189BD09B4CD
:1023500000FEFDCF81E08093C20480919D04811135
:1023600009C00E9423080E94EE088091E200846068
:102370008093E2008091E10080FF17C08091E2002D
:1023800080FF13C08091E2008E7F8093E2008091F5
:10239000E20080618093E2008091D80080628093A7
:1023A000D80019BC85E08093C2048091E10084FFCD
:1023B00029C08091E20084FF25C080E189BD82E1CF
:1023C00089BD89B5982F917080FFFBCF8091D8008F
:1023D0008F7D8093D8008091E1008F7E8093E10013
:1023E0008091E2008F7E8093E2008091E200816024
:1023F0008093E2008091C304882309F445C084E0FF
:102400008093C2048091E10083FF27C08091E200A5
:1024100083FF23C08091E100877F8093E10082E009
:102420008093C2041092C3048091E1008E7F809358
:10243000E1008091E2008E7F8093E2008091E200D3
:1024400080618093E20042E060E080E00E94BC088E
:102450008091F00088608093F000FF91EF91BF9130
:10246000AF919F918F917F916F915F914F913F912C
:102470002F910F900FBE0F901F90189519BC1092BE
:10248000C20410929D0476CF8091E30087FD93E013
:102490009093C204B7CF0F931F930E94E510882337
:1024A00021F01F910F910C94C1090E94C109009164
:1024B0003302109134022091350230913602600FC0
:1024C000711F821F931F1F910F910895CF92DF926A
:1024D000EF92FF926B017C010E94E51081110EC00A
:1024E0000E94C109C61AD70AE80AF90AC092330243
:1024F000D0923402E0923502F0923602FF90EF90D3
:10250000DF90CF90089578941F921FB61F921124E8
:102510008F939F93AF93BF9380912F02909130023E
:10252000A0913102B09132020196A11DB11D80939C
:102530002F0290933002A0933102B0933202BF91E8
:10254000AF919F918F911F901FBE1F9018952FB72D
:10255000F89480912F0290913002A0913102B091B5
:1025600032022FBF08950E94A7129C0190917F0410
:1025700080918004982B21F030937C0420937B047D
:102580009091810480918204982B21F030937904FA
:1025900020937804E0914702F0914802309749F087
:1025A00082E080937D040480F581E02D8DE794E046
:1025B0000994089590E080E00E94D90A90E080E0BC
:1025C0000E94C30A10922A02109228020E942C0A2A
:1025D00086E0EDE7F4E0DF011D928A95E9F71092BD
:1025E0007A04109277041092B8010C94B31260939D
:1025F000CF047093D0048093D1049093D2040C94B0
:10260000DA120F931F936091CF047091D0048091E0
:10261000D1049091D2048B019C01067011272227CE
:102620003327063011052105310529F468601F9113
:102630000F910C94F712677FFACF0F931F9341E02D
:1026400050E060E070E004C0440F551F661F771F24
:102650008A95D2F7CB01BA016095709580959095D7
:102660000091CF041091D0042091D1043091D20474
:1026700060237123822393231F910F910C94F712EF
:102680000F931F9341E050E060E070E004C0440FFE
:10269000551F661F771F8A95D2F78091CF049091BE
:1026A000D004A091D104B091D2048A019B01082BDF
:1026B000192B2A2B3B2BC901B8011F910F910C94A8
:1026C000F71260932B0270932C0280932D0290934B
:1026D0002E020C94DA121092290280912501E0E971
:1026E000F1E0882359F08091450287FF07C08EE111
:1026F000DF011D928A95E9F70C94DA1286E0F8CF93
:102700001F93CF93DF93CDB7DEB7AA970FB6F89498
:10271000DEBF0FBECDBF84EC94E02091F100DC0160
:102720002D93CD01B4E08C3C9B07B9F78091C50493
:10273000833009F471C0B8F4813009F448C08230A4
:1027400009F4B2C08091E80083FF3AC18091C404CB
:102750009091C5049A3008F033C1E92FF0E0E754B6
:10276000F54D0C943F2A8A3009F48DC08B3009F462
:1027700070C0893039F78091C404813219F7809193
:10278000C8049091C904009711F00297D9F680917E
:10279000E800877F8093E8008091E80082FF37C0DF
:1027A0009091F3008091F200029729F48091F1005A
:1027B0008B7F813021F48091F10080939F04809180
:1027C000E8008B778093E8000E949D08BBCF809142
:1027D000C404813A09F0B6CF8091E800877F8093E6
:1027E000E8008091C8049091C904892B61F460E2EB
:1027F00080EA94E070E00E944F098091E8008B77B6
:102800008093E8009FCF60E090E080E0F3CF80917C
:10281000C2048111C1CF96CF8091C404813A09F0DE
:1028200091CF8091C8049091C904892B09F08ACF77
:102830008091E800877F8093E8008091E80080FF26
:10284000FCCF809125018093F1008091E8008E7784
:10285000B9CF8091C404813209F074CF8091C8044B
:102860009091C904892B09F06DCF8091E800877F92
:102870008093E8000E949D088091C6048093250102
:102880000E946B135FCF8091C404813209F05ACF4C
:102890008091E800877F8093E8000E949D088091E6
:1028A000C70480939E044ECF8091C404813A09F0FE
:1028B00049CF8091E800877F8093E8008091E8000D
:1028C00080FFFCCF80919E04BECF803899F0823883
:1028D00009F076C08091C8048F70873008F070C00E
:1028E0008093E9008091EB0085FB882780F91092A6
:1028F000E90006C08091C0049091C10491118260EA
:102900009091E800977F9093E8008093F1001092F7
:10291000F1008091E8008E77B5C1882309F4A2C147
:10292000823009F04DC08091C6048111A6C180910A
:10293000C8048F702FEF280F263008F041C0809315
:10294000E9002091EB0020FF98C1933031F4809191
:10295000EB0080628093EB0090C19091EB0090615E
:102960009093EB0021E030E001C0220F8A95EAF756
:102970002093EA001092EA008091EB008860EACF91
:1029800081111EC01091C6041F778091E3008078EA
:10299000812B8093E3008091E800877F8093E8009B
:1029A0000E949D088091E80080FFFCCF8091E300A9
:1029B00080688093E30082E0111183E08093C20479
:1029C0008091E80083FF0AC08091E800877F8093B0
:1029D000E8008091EB0080628093EB00AA960FB62E
:1029E000F894DEBF0FBECDBFDF91CF911F91089548
:1029F0008058823028F72091C6043091C7042C3DBE
:102A0000E3E03E07A1F583E08A838AE289834FB73A
:102A1000F894DE01139620E03EE051E2E32FF0E06F
:102A200050935700E49120FF03C0E295EF703F5FA1
:102A3000EF708E2F90E0EA30C0F0C7968D939D9393
:102A40002F5F243159F74FBF8091E800877F809333
:102A5000E8006AE270E0CE0101960E944F09809181
:102A6000E8008B778093E800ABCFC096E7CF8091EA
:102A7000C8049091C904432F55274330510509F4E8
:102A80004AC078F54130510509F47AC08BE590E0F1
:102A9000E0E2FFE04230510509F092CF2091E800DA
:102AA000277F2093E8002091CA043091CB0482173D
:102AB000930708F49C0140E02115310509F065C039
:102AC000411163C08091E80082FDC9CF8091C204AA
:102AD000882329F2853019F28091E80083FFF2CF34
:102AE000BECF4132510509F43CC04232510509F0D4
:102AF00067CF8330910508F063CFFC01EE0FFF1F15
:102B0000E058FE4F0190F081E02D83589E4FDC018C
:102B10008C9190E01AC0332721303105D1F0211576
:102B2000310561F02230310509F04ACFEDE8FFE0D0
:102B3000E4918E2F90E0EDE8FFE007C0EFEAFFE0C0
:102B4000E4918E2F90E0EFEAFFE0009709F438CF90
:102B5000A5CFEDE9FFE0E4918E2F90E0EDE9FFE0F5
:102B6000F4CF8330910508F02BCF880F991FFC011B
:102B7000EA57FE4F0190F081E02D89E090E08ECF82
:102B800082E190E0EBE7FFE089CF8091C2048823E7
:102B900009F465CF853009F462CF8091E80083FDA8
:102BA0005ECF8091E80082FD8DCF8091E80080FFAC
:102BB00083CF9091F3008091F2002115310519F037
:102BC0008830910550F041E0089709F040E080918D
:102BD000E8008E778093E8006FCF44914093F10036
:102BE0003196215031090196E8CF803809F0E8CEBE
:102BF0008091E800877F8093E8008091C3048093F0
:102C0000F10087CE8111DCCE1091C604123008F09D
:102C1000D7CE8091E800877F8093E8001093C304AB
:102C20000E949D08112311F084E005C08091E3000B
:102C300087FDFACF81E08093C20442E061EC81E03D
:102C40000E94BC0842E261EC84E00E94BC0842E2BF
:102C500061EC82E00E94BC0842E260EC83E00E94EA
:102C6000BC08AECE8091C604813009F0A9CE81E0C7
:102C7000933009F080E08093C1041092E9008091C4
:102C8000E800877F8093E8000E949D0899CE1F92FC
:102C90000F920FB60F9211242F933F934F935F9390
:102CA0006F937F938F939F93AF93BF93CF93DF9354
:102CB000EF93FF93D091E900DF708091EC00C82F73
:102CC000C17080FDC0E81092E9008091F000877F1C
:102CD0008093F00078940E9480131092E900809114
:102CE000F00088608093F000CD2BCF70C093E90096
:102CF000FF91EF91DF91CF91BF91AF919F918F9114
:102D00007F916F915F914F913F912F910F900FBEE7
:102D10000F901F9018958823B1F19CEF980F913A6E
:102D200038F4682F8EE891E00E94CD090C942C0AAB
:102D300090E2980F983088F4877021E030E0A90184
:102D400002C0440F551F8A95E2F7CA018095909101
:102D50002902892380932902E9CF9BE5980F9330BC
:102D600020F490E080E00C94D90A98E5980F973110
:102D700020F490E080E00C94C30A803F20F00E9491
:102D80001F0B0C94B3120895CF93C82F882309F416
:102D90006FC08CEF8C0F813AC0F58091250188239C
:102DA00011F18091450287FF1EC0EC2FE695E69554
:102DB000E695F0E0E257FE4F828190E04C2F47709D
:102DC00021E030E002C0220F331F4A95E2F7822350
:102DD0009323892B91F06C2F8EE891E00E94CD090E
:102DE0000E942C0A0AC0E0E9F1E086E991E0219115
:102DF000C21789F38E179F07D1F76C2F8EE891E0E9
:102E00000E94F709CF910C942C0A80E28C0F883035
:102E100068F4C77021E030E001C0220FCA95EAF7DC
:102E200080912902822B80932902ECCFEBE5EC0FF5
:102E3000E33040F4F0E0EC5BFE4F808190E0CF9116
:102E40000C94D90AE8E5EC0FE73150F4F0E0EE0F0E
:102E5000FF1FE95BFE4F80819181CF910C94C30AE3
:102E6000C03F30F08C2F0E94DE0BCF910C94B31238
:102E7000CF9108951F93CF93DF93182FCFE0D0E029
:102E8000893311F4C0E5D0E0812F0E94C4168FE988
:102E90009FE00197F1F700C000002197C1F7812F53
:102EA000DF91CF911F910C948B160F931F93CF93AB
:102EB000DF93C62FD42F022FFC0182818823A1F03B
:102EC0006093CE040E94A7129093CD048093CC040B
:102ED000C77081E001C0880FCA95EAF7DF91CF91F2
:102EE0001F910F910C94B90A8091CE04681335C0DC
:102EF0008091CC049091CD040E94B209883C910548
:102F000060F510E21D0FCD17B9F080E28C0F88300C
:102F100040F4C77081E001C0880FCA95EAF70E94AB
:102F2000AE0A183048F481E09D2F977001C0880FD9
:102F30009A95EAF70E94B90A802F0E943A17183032
:102F400098F4D77081E001C0880FDA95EAF7DF9135
:102F5000CF911F910F910C94AE0AC77081E001C010
:102F6000880FCA95EAF7F3CFDF91CF911F910F91A8
:102F700008955F926F927F928F929F92AF92BF92CD
:102F8000CF92DF92EF92FF920F931F93CF93DF9335
:102F900000D000D00F92CDB7DEB76C01FC01838169
:102FA0009481892B31F08081918189238F3F09F0B1
:102FB00055C50F900F900F900F900F90DF91CF910C
:102FC0001F910F91FF90EF90DF90CF90BF90AF9047
:102FD0009F908F907F906F905F9008950E94510F07
:102FE000182F682F89819A810E94780A69817A81D5
:102FF000812F0E94D30D8C01F6018281882309F470
:1030000022C5C80182519F45409708F0C2C48FEF86
:1030100093E00E94672A025197ECA92E92E0B92E04
:103020008111C7CF011134C01C821B8266246394B6
:103030008AE0582E85010F5F1F4FC5010E94672A45
:1030400089831A82882309F4B4CF9FEF980F9330B5
:1030500070F58A83698232E0A30EB11CC8010E9418
:10306000672A8B83882309F4A4CF8E010F5F1F4F3B
:10307000F80120812223F1F2213009F052C0918120
:1030800082819130B1F40E5F1F4F0E943A1717C032
:10309000A114F4E0BF0609F48CCFC5010E94672A91
:1030A000811101C001502FEFA21AB20ABBCF580103
:1030B000DCCF923039F40E5F1F4F0E94C4160F5FB1
:1030C0001F4FD6CF933029F40E5F1F4F0E948B16EF
:1030D000F6CF943019F00F5F1F4FF1CF0E5F1F4FE7
:1030E00030E020E0B8016F5F7F4FF80141818053ED
:1030F000990B8A30910550F02150310900F38FE986
:103100009FE00197F1F700C00000F6CF529EF0015A
:10311000539EF00D11249C012E0F3F1F842F8B0115
:10312000E1CFE22FF0E0E158F24F7490822F8695C4
:103130008695869590E0FC01E159F24FE490277066
:10314000F12C022E02C0F594E7940A94E2F7E1E034
:10315000EE22FF24FC01E15AF24FC490D12C022E42
:1031600002C0D594C7940A94E2F7F1E0CF22DD249F
:10317000FC01E15BF24F8490912C02C095948794FE
:103180002A95E2F721E082229924E114F10419F052
:1031900081EE0E94C416C114D10419F086EE0E947B
:1031A000C416872D0E943A17CD2819F086EE0E948A
:1031B0008B16EF2819F081EE0E948B16892809F4EE
:1031C0007ECF8CE262CF81E00E94401303C081E099
:1031D0000E941D130F900F900F900F900F90DF9192
:1031E000CF911F910F91FF90EF90DF90CF90BF9004
:1031F000AF909F908F907F906F905F900C94011391
:1032000082E0E2CFE491A091F404B0E0AB50BB4F78
:10321000EC938091F404813039F48FE78093F904C2
:103220008093F8048093F7048091F4048F5F809377
:10323000F404D9C3053FECE51E0709F474C008F493
:103240006EC0063F2CE5120709F471C0F6018281B9
:10325000882309F414C41092CE040230FCE51F0741
:1032600008F447C106312CE5120738F098012A5FAF
:103270003C452930310508F03CC10E949F0D9093D8
:1032800046028093450200313CE5130709F400C172
:1032900008F091C008305CE5150709F4EBC008F0B0
:1032A00060C004309CE5190709F4DCC008F046C092
:1032B0000230FCE51F0709F4CFC08091450282600F
:1032C00003301C4509F4CBC06091450210914602C1
:1032D00084E090E00E94752A612F82E290E00E94D3
:1032E000752A0F900F900F900F900F90DF91CF9154
:1032F0001F910F91FF90EF90DF90CF90BF90AF9014
:103300009F908F907F906F905F900C946B1327E24B
:1033100045EE65EE81C326E241EE60EE7DC327E215
:1033200045EE64EE79C326E241EE62EE75C327E214
:1033300045EE66EE71C328E241E0EBCF8091450295
:10334000806106303CE5130709F489C0809145028D
:10335000886007301C4508F482C080914502806275
:103360007EC0809145028D7F0C305CE5150709F425
:1033700076C070F4809145028C600A309CE5190794
:1033800009F46DC008F47AC0809145028E7F67C051
:1033900080914502877F0E30FCE51F0709F45FC06E
:1033A000809145028B7F0F301C4508F458C08091F6
:1033B00045028F7E54C00B3F3CE5130709F456C00D
:1033C00030F503315CE5150709F46AC078F4013182
:1033D0009CE5190709F460C002311C4509F074CF5F
:1033E0000E946B13809145028F7739C00531FCE54F
:1033F0001F0709F45DC008F471C080914602816026
:103400000A3F1C4509F060CF809346025DCF0F3F15
:103410004CE5140709F448C070F40D3F8CE518071B
:1034200099F1809146028E7F0E3F1C4568F3809192
:1034300046028360E9CF0130EDE51E0709F457C06D
:1034400008F442C060E002301D4509F03DCF8EE037
:1034500090E00E94752A38CF809145028160809368
:10346000450232CF809145028460F9CF80914602B7
:103470008260CACF809145028064F1CF0E946B13B5
:10348000809145028068EBCF809146028D7FBCCF52
:10349000809145028F7DE3CF809145028F7BDFCF06
:1034A00080914502837FDBCF809146028C7FACCF39
:1034B0008091450282FB992790F921E0922790FBA9
:1034C00082F990FB83F9CBCF80914602982F90959B
:1034D00091708E7F892B90FB81F996CF0E946B13A0
:1034E00090914502892F97FB87F98058B8CF61E00A
:1034F000AECF06313CE5130709F0CEC28091290218
:103500008A7A91E009F490E09093B70169E2811121
:1035100065E38EE891E00E94F7090F900F900F90FD
:103520000F900F90DF91CF911F910F91FF90EF902F
:10353000DF90CF90BF90AF909F908F907F906F90D3
:103540005F900C942C0A0E946B134FEF54E38CE0B5
:10355000415050408040E1F700C000000E94C1107F
:103560000F900F900F900F900F90DF91CF911F91C0
:103570000F91FF90EF90DF90CF90BF90AF909F9012
:103580008F907F906F905F900C940911C8010E94FA
:10359000500AF82E98C2092F0F70907F11F00295F3
:1035A000007F812F2223C9F0002369F090E2910F60
:1035B000983010F011110BC080912902082B009354
:1035C00029020E942C0A812F0E94C41617C08091E4
:1035D0002A02082B00932A02F4CF0E948B160023A4
:1035E00069F00095105E183010F0B11025C0809180
:1035F00029020823009329020E942C0A98E0E91A64
:10360000F108E4E0EE16F10408F0D3CC0F900F902F
:103610000F900F900F90DF91CF911F910F91FF901E
:10362000EF90DF90CF90BF90AF909F908F907F9062
:103630006F905F900C94EF0A80912A020823009308
:103640002A02DACF892F8F70907F903211F0829505
:10365000807FF1E0BF120CC0222329F0363070F6D3
:103660000E94B90ACBCF353048F60E94AE0AC6CFC9
:10367000222341F03323A1F340FFA5CF4F70F60181
:103680004583EECF332389F3193309F07AC1FFEF75
:1036900027EE33E0F15020403040E1F700C0000059
:1036A000812F0E948B16AACF892F869586958370CD
:1036B00061F0813009F0A2CF812F9370211102C0F7
:1036C00090E080E00E94C30A99CF812F937021116E
:1036D00002C090E080E00E94D90A90CF812F22237F
:1036E00029F00E94DE0B0E94B31288CF0E941F0BAC
:1036F000FACF892F837009F065C021117FCF812F08
:10370000829586958770880F880F412F4F7050E003
:1037100070E060E0082E04C0440F551F661F771F3D
:103720000A94D2F714FF2CC00FE010E020E030E044
:1037300004C0000F111F221F331F8A95D2F7009576
:10374000109520953095969596959370923039F115
:10375000F8F480902B0290902C02A0902D02B09053
:103760002E02913089F0402B512B622B732BCB0111
:10377000BA01682179218A219B210E9461133ECFE1
:1037800000E010E09801DFCF482959296A297B29F8
:10379000CB01BA01602B712B822B932BEECF402BE8
:1037A000512B622B732B00912B0210912C02209134
:1037B0002D0230912E02CB01BA016027712782279A
:1037C0009327DBCF8695222311F0892F81708823E0
:1037D00009F414CF812F829586958770880F880F02
:1037E000412F4F7050E070E060E0082E04C0440F9D
:1037F000551F661F771F0A94D2F714FF2CC00FE0E5
:1038000010E020E030E004C0000F111F221F331F22
:103810008A95D2F7009510952095309596959695B6
:103820009370923039F1F8F48090CF049090D004E6
:10383000A090D104B090D204913089F0402B512B4C
:10384000622B732BCB01BA01682179218A219B213C
:103850000E94F712D3CE00E010E09801DFCF482994
:1038600059296A297B29CB01BA01602B712B822B44
:10387000932BEECF402B512B622B732B0091CF0457
:103880001091D0042091D1043091D204CB01BA011F
:103890006027712782279327DBCF092F0F70222300
:1038A00029F0802F0E944013812FDACE812F0E94B1
:1038B000AE0A802F0E941D13A1CE812FE1EF1E17AB
:1038C00009F442C0E11758F0F0EF1F17F1F022237E
:1038D00009F44BC0311177CE892F8F713AC042EF76
:1038E0001417D1F153EF1513F2CF2223D1F1292F61
:1038F0002F7161E070E080E090E004C0660F771FF8
:10390000881F991F2A95D2F7A3CF2223C9F03530FB
:1039100008F074CE292F2F7161E070E080E090E014
:1039200004C0660F771F881F991F2A95D2F7009150
:10393000CF041091D0042091D1043091D204A8CFAB
:10394000363008F05BCEE6CF892F8F71222309F441
:10395000B1CF0E94401352CE892F8F712223C9F319
:10396000A9CF60E070E0CB0173CF332379F08933C6
:1039700041F48FEF97EEE3E081509040E040E1F7B3
:103980008DCE8FE59AEE0197F1F788CE892F8F7152
:1039900091CF0031FFE51F0709F415CC01312FE568
:1039A000120709F42DCC8091F404F801013F1105B0
:1039B00010F0E0EFF0E0E150F24F843008F422CC58
:1039C0008091F7048093F6048091F8048093F704C3
:1039D0008091F9048093F804E491A091F404B0E09C
:1039E000AB50BB4FEC93033F3CE5130709F493CC7A
:1039F00008F020CC083D5CE5150709F488CC093DAA
:103A00008CE5180709F497CC073D9CE5190709F0E8
:103A10001DCC26E241EE61EEC6010F900F900F9093
:103A20000F900F90DF91CF911F910F91FF90EF902A
:103A3000DF90CF90BF90AF909F908F907F906F90CE
:103A40005F900C94551700313FE5130709F4BFCB85
:103A500001314FE5140739F682E0BACB85E0DE018B
:103A6000119601900D928A95E1F7F60122818981E4
:103A70009A812111B3CA0E94500A182FB7CA063181
:103A80001C4599F48091B70169E2811165E38EE8E4
:103A900091E00E94CD0941CD01152CE5120709F4F2
:103AA00052CD0E3D1C4509F45BCDF601008111811C
:103AB000882309F46BCDC8010E94510FF82E682F9E
:103AC000C8010E94780AB8018F2D0E94E00D182FBE
:103AD000B82EF60122814581342F32953F70892F0F
:103AE00082958F70E82EF12C8C3008F087CDF7018D
:103AF000ED53F54D0C943F2A1F93CF93DF938091A4
:103B0000BE01807FA9F48091BB01882389F0809158
:103B1000F001D091BF016091B9017091BA01A091FB
:103B2000BC01B091BD01C62FC72316E0D81304C055
:103B3000DF91CF911F91089590E0109711F0CF3F42
:103B400019F401968770F2CF189F9001199F300DDC
:103B50001124F901E054FE4F41814713F2CF408117
:103B60004613EFCF42814111ECCF438154814A1B70
:103B70005B0B483C510528F78091BE018F70806136
:103B80008093BE01F901EB53FE4F80818F708061FD
:103B9000808389EB91E00E94B917DF91CF911F914B
:103BA0000C94A40AAF92BF92CF92DF92EF92FF9251
:103BB0000F931F93CF93DF93CDB7DEB761970FB607
:103BC000F894DEBF0FBECDBF8C0185E0F801DE01A9
:103BD0001D9601900D928A95E1F7F80180819181FF
:103BE000E28029EBA22E21E0B22E6091BC017091FF
:103BF000BD016115710509F43EC13091B9014091D3
:103C0000BA01232F24232F3F09F435C1C380D48068
:103C1000F090BB01F601E61BF70BFF2009F4FBC097
:103C20002091BE01522F507FE83CF10508F0BBC047
:103C3000511178C0FE2C491321C038131FC0E11068
:103C40001DC02F7020612093BE01C5010E94B917CD
:103C50008091BE01F80185838F2D61960FB6F8948F
:103C6000DEBF0FBECDBFDF91CF911F910F91FF90AF
:103C7000EF90DF90CF90BF90AF900895CD2829F0BE
:103C8000282F29232F3F09F014C120E0F22FF170D3
:103C9000DF2E20FF3DC02091F0014091BF0156E092
:103CA000241315C08D879E878D859E850E94930F56
:103CB000292F22952F702230F8F0243020F59F70A4
:103CC000F9F0F8019581907FD9F4D12C1FC030E034
:103CD000529FF001539FF00D1124E054FE4F61817B
:103CE000961306C06081861303C06281E61210C07D
:103CF0002F5F3F4F2770D4CF9F7011F0882329F397
:103D0000805E883010F3C8010E94B917FD2CA4CF43
:103D1000EE2009F4A1CF8091BE0181608093BE01A5
:103D2000F12C9ACF491312C0381310C0E1100EC005
:103D3000F8012583C8010E94B91786E0F801A9EBB4
:103D4000B1E001900D928A95E1F786CF8D879E872D
:103D50008D859E850E949D0F882309F1EE20F9F044
:103D60008091BE01803270F02091B9013091BA018A
:103D700038872F831986DB86CA868C87CE01079603
:103D80000E94B91786E0F801A9EBB1E001900D920D
:103D90008A95E1F70E947C1DFF24F3945DCFC80152
:103DA0000E94B917F9CF51110AC089EB91E00E9426
:103DB000B91786E0F50111928A95E9F7B1CF491359
:103DC0000FC038130DC0E1100BC0F8012583C801E6
:103DD0000E94B91786E0F50111928A95E9F73CCF68
:103DE0008D879E878D859E850E949D0F8823B9F2C1
:103DF000EE20A9F28091BE01803220F22091B9011B
:103E00003091BA013A8329831B82DD82CC828E8372
:103E1000CE010196B5CFE83CF105E0F6FE2CEE2090
:103E200009F4BDCF491316C0381314C08091BE01E8
:103E300080FD83CF982F907F09F47FCFF801858391
:103E4000903F09F477CF982F907F905F8F70892BE8
:103E5000858370CF8D879E878D859E850E949D0F5F
:103E6000811190CF8091BE0181608093BE01C80115
:103E70000E94B917F1CEEE2009F491CF8D879E876D
:103E80008D859E850E949D0FF82E882309F487CF8B
:103E900086E0F801A9EBB1E001900D928A95E1F777
:103EA0008091B9019091BA010E94930F0E947C1DEC
:103EB000D3CE21E02E25EACE1F93CF93DF93CDB74B
:103EC000DEB767970FB6F894DEBF0FBECDBF342FB5
:103ED0004B8B252F5C8B6D8B7E8B8F8B8E899F8977
:103EE000611110922A021A8A198A3D872E876F87DC
:103EF000998B888B86E0FE013D96DE011796019036
:103F00000D928A95E1F7CE0107960E94D21D882373
:103F100089F016E08091F0019091BF01891349C0AA
:103F200067960FB6F894DEBF0FBECDBFDF91CF917D
:103F30001F91089586E0FE013796DE0111960190EB
:103F40000D928A95E1F78A859B85892B11F38F81E4
:103F5000988589238F3FE9F22091BF0130E0C901A4
:103F60000196877099274091F0014817190671F45E
:103F70000E946B131092BF011092F00186E0E9EBF2
:103F8000F1E0DF011D928A95E9F7C3CF96E0929F99
:103F9000D001939FB00D1124A054BE4FFE01319665
:103FA00001900D929A95E1F78093BF010E94A40AB7
:103FB000B0CF819FC001112480549E4F0E94D21D1A
:103FC000882309F4ADCF8091F00190E001968770CD
:103FD00099278093F0019ECF8F929F92AF92BF92CC
:103FE000CF92DF92EF92FF920F931F93CF93DF93C5
:103FF00000D000D000D0CDB7DEB707E011E087E3F6
:10400000C82E82E0D82E4601F12CAA24A394B12C0C
:10401000D8018D918D01F894E82FE295EF70F0E0D2
:1040200021A18F70A50102C0440F551F8A95E2F7A8
:10403000CA01922F982B91A392A18095892382A3E4
:10404000789400C0E0E0F1E030E020E0E12C419124
:10405000A42FA295AF70B0E090968C9190E04F7035
:1040600002C0959587954A95E2F780FD48C08A2D54
:10407000022E01C0880F0A94EAF7E82A2F5F3F4F0B
:104080002730310521F7F801319780810E94380CE3
:1040900050EA5A95F1F7D4018C91E81691F1EC921F
:1040A00081E0F82ABFEF8B1A9B0AE1E00D301E0772
:1040B00009F0AECF10914402FF2029F181E08093F6
:1040C000B0010E94A7129093AF018093AE0180913E
:1040D000AE019091AF010E94B2090697C0F0E12FA6
:1040E000F0E0EF56FB4FD6018D916D018193BDE35A
:1040F000CB16B2E0DB06B9F71092B00108C080E041
:10410000BCCF80E0CECF8091B0018111E0CF0E9482
:10411000E510E82E60914402882309F460C08E0106
:104120000F5F1F4F86E0F80111928A95E9F7862FFD
:1041300090E0B8018F569B4F0E944327811132C0F7
:104140008091B1018F5F8093B101863008F445C042
:10415000E0914302F0E0EF56FB4F90E080E01192D7
:10416000019686309105D9F780917304811103C0BF
:1041700081E08093F404F11001C0FE2C8F2D26966F
:104180000FB6F894DEBF0FBECDBFDF91CF911F9168
:104190000F91FF90EF90DF90CF90BF90AF909F90E6
:1041A0008F9008951092B101A0914302B0E0AF56F4
:1041B000BB4F9E01295F3F4FE12C4D91F80191913A
:1041C0008F01491731F0AD0141505109FA01908337
:1041D000E82E2017310789F7C7CFE12CC5CF70E053
:1041E0006F567B4F8091430290E08F569B4F0E9409
:1041F000A027C1CFCDB7DEB7AF970FB6F894DEBF1B
:104200000FBECDBF84B7877F84BF0FB6F894A89543
:1042100080916000886180936000109260000FBE02
:1042200080E890E00FB6F89480936100909361006D
:104230000FBE85B7806885BF85B7806885BF8DEA6A
:1042400099E090938D0180938C010E9423080E9435
:10425000EE088091E20084608093E200789480917F
:10426000C2048823A1F01091E9001F709091EC0026
:10427000892F817090FD80E8182B1092E9008091C1
:10428000E80083FD0E9480131F701093E90082E014
:1042900084BD93E095BD9AEF97BD80936E00109218
:1042A00033021092340210923502109236021092AC
:1042B00013010E94E51081110E943727809113019C
:1042C000811131C0FE01379686E0DF011D928A958B
:1042D000E9F784E9898386E68A8387E98B8386EC1C
:1042E0008C8384E38D8385E38E833697A7E0B1E0EA
:1042F000CE010D9621912D93E817F907D9F787E0A4
:10430000EEE2F1E0DE01919601900D928A95E1F7DF
:10431000FE01B196A0E0B1E0CE01889621912D93E7
:10432000E817F907D9F78091130196E0811190E021
:104330009093440286E0891B8093430207E011E0DA
:10434000F80181918F010E94380CF1E00D301F07B8
:10435000B9F700E011E0B7E0EB2EB1E0FB2ED80199
:104360008D918D010E94380CE016F106C1F7E7E34C
:10437000F2E0A1E9B4E011921D9222E0E334F207E9
:10438000D1F790E080E00E946F2A8A3E9E4F11F0A4
:104390000E94091182E090E00E94672A80938404C1
:1043A0000E949F0D90934602809345020E94EC1F4D
:1043B0008FE39CE90197F1F700C000000E94EC1F19
:1043C0008091910480FF17C06FEF83E290E00E941C
:1043D000752A6FEF84E290E00E94752A6FEF85E204
:1043E00090E00E94752A6FEF7FEF90E080E00E94DE
:1043F000932A0E94C11083E090E00E94672A682FF0
:1044000070E090E080E00E9461130E94E51081114D
:1044100002C00E943D2783E290E00E94672A813219
:1044200009F0C8C484E290E00E94672A803109F054
:10443000C1C485E290E00E94672A833009F0BAC4C3
:1044400065E371E085EF94E00E94602A8FE7809336
:10445000F6048093F7048093F8048093F90481E0D4
:104460008093F40410926B0480E880934A020E94C7
:10447000F3276DE070E081E19FE00E94470D892BFA
:10448000C9F580916B0463E070E081FD22C28EE08B
:104490009FE00E94470D892B69F56DE070E08EEF7B
:1044A0009EE00E94470D892B29F50E94C109605AA0
:1044B00075418F4F9F4F60936F047093700480938A
:1044C000710490937204EBE6F2E080E092E0DF0189
:1044D0009C011D9221503040E1F78FEF9FEF9093A8
:1044E0006E0480936D0481E080937604809373045E
:1044F00010926C04609145026068609345021091CF
:10450000460284E090E00E94752A612F82E290E0EA
:104510000E94752A8BE191E09093480280934702B4
:1045200081E994E03CE0380F3DA78091C20400E1AE
:1045300012E1853009F406C20E94EC1FD82E8111C9
:104540000E94C10905E814E0A1E9EA2EA4E0FA2ED0
:10455000B12CA12CF70171907F01D8018C908714A8
:1045600061F18724912CCC24C3948C2D882101F1F6
:104570000E94E5108823A1F099A2AAA291E08C2DB7
:10458000872109F490E09BA30E94A7128160782FF5
:104590009DA38CA349A15AA16BA18DA10E945C1F70
:1045A000F80180818C258083B394F3E0FB15E8F05B
:1045B0009394CC0C27E09212D8CFA3940F5F1F4F97
:1045C0003CE0A312C7CFB11010C08FEF88A789A716
:1045D0001AA60E94A7128160782F9CA78BA748A5D6
:1045E00059A56AA58CA50E945C1F8091760488233A
:1045F00009F471C080917404909175040E94B2090D
:10460000C297B0F10E94A71290937504809374042E
:10461000FEE18F2EFFE09F2E00E810E0780180E29F
:10462000E81AF1085401F5018491B7010E94FB0AD0
:10463000FFEFAF1ABF0A2FEFE21AF20A0E151F059D
:1046400091F730E2830E911C00581F4F003842E072
:10465000140721F727E046E06CE371E080E00E9458
:10466000920C26E04CE065EF74E081E00E94920C31
:1046700020916D0430916E042115310539F080913F
:104680006C0461E070E0882309F467C180917304D1
:10469000882309F10E94C10900916F0410917004F0
:1046A0002091710430917204601B710B820B930B8B
:1046B0006F3F7F4F8F4F9F4770F480917604882320
:1046C00051F062E070E08EE19FE00E94470D892B7F
:1046D00011F410927304D1100E94770D86E0EDE77B
:1046E000F4E0DE01119601900D928A95E1F7F090C9
:1046F0007F04E09080041091810400918204109264
:104700007F041092800410928104109282048F2DF5
:104710008E2909F448C080917B0490917C040E940A
:10472000B2099C0190917A04992309F469C3253157
:104730003105C8F19F3F19F09F5F90937A04FF20E5
:1047400059F00E94BA0B9FEF1F140CF491E0899F5F
:10475000802D112480937F04EE2059F00E94BA0B23
:104760009FEF1E140CF491E0899F802D11248093FB
:10477000800430917F043323B1F020918004222300
:1047800091F045EB3403C0011124992309F4B0C121
:1047900090937F0445EB240390011124332309F403
:1047A000ABC130938004812F802B09F448C08091E5
:1047B0007804909179040E94B2099C019091770449
:1047C000992309F419C325363105C8F19F3F19F023
:1047D0009F5F90937704112359F00E94980B9FEFED
:1047E00011160CF491E0899F802D1124809381048F
:1047F000002359F00E94980B9FEF10160CF491E0E3
:10480000899F802D11248093820430918104332369
:10481000B1F020918204222391F045EB3403C001D2
:104820001124992309F46CC19093810445EB24036E
:1048300090011124332309F467C1309382048091DD
:104840007F0490918004892B90918104892B909111
:104850008204892B11F00E94B31286E0FE0131968A
:10486000ADE7B4E001900D928A95E1F70E94EF0A5E
:1048700090918304891721F00E94EF0A80938304AA
:104880008091C204843009F050CE83E08093E90027
:104890008091E80082FF49CE8091E80090E085FF9A
:1048A00006C00E944208882309F432C191E0809139
:1048B000E8008B778093E800992309F436CEE981EC
:1048C000E150E33108F095C1F0E0E153F54D0C946F
:1048D0003F2A8BE09FE0DDCD8091C204843021F13E
:1048E0001092490288E190E0A0E40FB6F894A895F0
:1048F000809360000FBEA093600083B7817F8460C7
:1049000083BF83B7816083BF7894889583B78E7F98
:1049100083BF0FB6F894A89580916000886180935A
:104920006000109260000FBE8091C104882351F096
:104930000E94EC1FE1E9F4E08191811125C2BDA53F
:10494000BE13FACF8091C204853009F4C5CF0E940E
:104950006B130E94EF0AF0CD8F5F082F10E07B01F0
:10496000082E02C0EE0CFF1C0A94E2F7A9014E21AA
:104970005F21452B89F390916B0490FD43C0829594
:10498000880F807680931601980136952795369585
:10499000279520931901815E8093170110921A01C7
:1049A00024E630E047E050E064E171E088E70E94EF
:1049B0008428892B09F06ACEA80175E0440F551FA1
:1049C0007A95E1F780916B0480FD2AC045595D4FCF
:1049D00004E610E020E230E060E488E70E94AB28C3
:1049E000892B09F053CE0E94770DE094F0948091CA
:1049F0006D0490916E04E822F922F0926E04E09228
:104A00006D0444CE880F880F880F80931601109292
:104A10001901895F8093170183E080931A01C0CF49
:104A2000EBE4F2E080E2DF011D928A95E9F7E9E725
:104A3000F1E0FFA7EEA705E711E03DE7232E31E007
:104A4000332E67E0962E88248394AEA5BFA52D91C2
:104A5000BFA7AEA7F80141908F01440E552E511CFF
:104A6000C20185599D4F2C01E22FF0E0E55BFD4F1F
:104A700030E020E0692C621AC82C022E01C0CC0C58
:104A80000A94EAF7520190E0D5018D915D018C21E5
:104A9000662D691B6770762E062E000C770BB82FDB
:104AA00001C0BB0F7A94EAF77B2E7195619571096D
:104AB0006770772701C086956A95EAF7782A808122
:104AC000782A70829F5F9830F9F62F5F3F4F3196BA
:104AD0002830310579F6EEA5FFA52E163F0609F020
:104AE000B4CF04E610E020E230E04BE452E074CFB3
:104AF00081E080937F044ECE81E08093800453CE8A
:104B000081E08093810492CE81E08093820497CEED
:104B100000E210E0CE0101967C018091E80085FD65
:104B20000AC08091E8008B778093E8000E944208D9
:104B3000882399F3BBCE8091F100D7018D937D013D
:104B40000150110951F7B2CE1A8289E08B8311C04E
:104B50008A81823009F447C1833091F1813009F0B4
:104B600048C00E94C1090E94452A6B837C838D83C3
:104B70009E838091C204843009F0D7CC1091E90063
:104B80001F709091EC00892F817090FD80E8182BA8
:104B900082E08093E9008091E80080FF0DC050E042
:104BA00040E060E270E0CE0101960E9473088091BF
:104BB000E8008E778093E8001F701093E900B5CC71
:104BC000DE011396E1E9F4E081918D9324E0ED3963
:104BD000F207D1F7CECF8A81823059F46B817C8184
:104BE0008D819E810E94452A86E290E00E94752A6E
:104BF000C0CF8FEF8983BDCF4C816B818A810E94AA
:104C0000AD0D9827892798279E838D83B2CFED809D
:104C1000FE80FE24EF24FE248A810B813EE0039F68
:104C20008001112448EA849F000D111D11248C81FC
:104C300090E0880F991F080F191F6F2DC8018796E4
:104C40000E94752A6E2DC8018896D0CF0E94C10F90
:104C500090CF80E18A838DCF81E08A8389E376CF0C
:104C60000A811B81102701271027CE0101967C01A4
:104C7000CC80DC01AC0DB11D6D01C80189539D4F85
:104C8000CE14DF0409F475CF0933B1E01B0750F4EB
:104C90000E94672AF70184830F5F1F4FBFEFEB1A53
:104CA000FB0AEBCFD70114961C92F6CF0A811B8129
:104CB000102701271027FE0131966F01EC80E00ECE
:104CC000F12EF11CC80189539D4FE016F10609F43D
:104CD00050CF0933F1E01F0728F4D60114966C91E8
:104CE0000E94752ABFEFCB1ADB0A0F5F1F4FEACF76
:104CF0000E9416103ECF84E0ADCF0A811B811027A1
:104D000001271027FE0131967F01CC809F012C0DD9
:104D1000311D6901C8018796CE14DF0409F429CF3B
:104D2000003A32E0130758F40E94672AD70114961C
:104D30008C930F5F1F4FFFEFEF1AFF0AEBCFF701C6
:104D40001482F7CF0A811B811027012710279E01AB
:104D50002F5F3F4F6901EC80E00EF12EF11CC8017E
:104D600087960E151F0509F404CF003A32E01307A9
:104D700028F4D60114966C910E94752ABFEFCB1AC5
:104D8000DB0A0F5F1F4FEBCF09BD19BD09B400FE51
:104D9000FDCF8091D8008F7D8093D8008091E00076
:104DA00082608093E0008091E00081FDFCCF0E9452
:104DB0006B13C8CD60E086E290E00E94752A0E94E5
:104DC000C10F0E94161061E283E290E00E94752AF2
:104DD00060E184E290E00E94752A63E085E290E061
:104DE0000E94752A2DCB86E290E00E94672A1B82E2
:104DF0001C821D828E83BDCE232B09F0E9CC1FCDF2
:104E0000232B09F099CCCFCC1F921FB61F921124EF
:104E10008F939F93AF93BF9380914902811113C0E9
:104E200080912F0290913002A0913102B091320214
:104E30004196A11DB11D80932F0290933002A09343
:104E40003102B0933202BF91AF919F918F911F9029
:104E50001FBE1F90189580932A02089580912A0200
:104E6000089580932902089580912902089561E0B0
:104E700070E086E291E00C943D2961E070E086E20A
:104E800091E00C9444290F931F93CF93DF93D82F75
:104E9000C92F8B010E94DE29009709F04FC0D8016D
:104EA000ED2FFC2FEC01C451DB4F28812D93219174
:104EB000EC01CC52DB4F2E8301968630910591F7A1
:104EC0000E9434278093D4040E942E278093D50417
:104ED00090E080E0FC01EB50FB4F2081FC01EC52A4
:104EE000FB4F2487019687309105A1F78091CF046D
:104EF0009091D004A091D104B091D2048093E704A2
:104F00009093E804A093E904B093EA048091F40438
:104F10008093EB040E944B126E5F7F4F8F4F9F4F29
:104F20006093D6047093D7048093D8049093D904E7
:104F300081E0DF91CF911F910F91089580E0F9CF2B
:104F40000F931F93CF93DF93D82FC92F8B016091BD
:104F5000D6047091D7048091D8049091D9040E940E
:104F60006612D801ED2FFC2F90E080E02D91EC012E
:104F7000C451DB4F2883EC01CC52DB4F2E812193AF
:104F800001968630910591F78091D4040E943127D3
:104F90008091D5040E942B2790E080E0FC01EC5228
:104FA000FB4F2485FC01EB50FB4F2083019687309B
:104FB0009105A1F78091E7049091E804A091E9049C
:104FC000B091EA048093CF049093D004A093D104CD
:104FD000B093D2048091EB048093F404DF91CF91DD
:104FE0001F910F9108951092B9008CE08093B80042
:104FF0000895EF92FF920F931F93CF93DF93182F93
:10500000EB011092BC0084EA8093BC000E94A712BE
:105010007C018091BC0087FF27C08091B900887F08
:10502000883029F08091B900887F8031D9F51093BC
:10503000BB0084E88093BC000E94A7128C01809181
:10504000BC0087FF24C02091B900287F90E080E059
:105050002831B1F081E090E0203411F490E080E05C
:105060009195819591090CC0CF3FDC0791F20E9488
:10507000A7128E199F098C179D0758F28EEF9FEF8C
:10508000DF91CF911F910F91FF90EF900895CF3F47
:10509000DC07A9F20E94A712801B910B8C179D07B9
:1050A00070F2ECCF8FEF9FEFEBCF0F931F93CF9367
:1050B000DF93EB018093BB0084E88093BC000E94E7
:1050C000A7128C018091BC0087FF11C02091B9000C
:1050D000287F81E090E0283211F490E080E0919503
:1050E00081959109DF91CF911F910F910895CF3F45
:1050F000DC0741F30E94A712801B910B8C179D07C0
:1051000008F38EEF9FEFEECFCF92DF92EF92FF92F8
:105110000F931F93CF93DF936B018A017901B9013C
:105120000E94F927E6010C0D1D1DC017D10761F47F
:1051300024E92093BC00DF91CF911F910F91FF9044
:10514000EF90DF90CF90089597FDF2CFB70189914E
:105150000E945528EACFCF92DF92EF92FF920F93F1
:105160001F93CF93DF93C62F6A017901B8010E9484
:10517000F92797FD0CC0B8018C2F0E945528E60135
:10518000EC0CFD1CCE15DF0511F097FF0CC024E9D7
:105190002093BC00DF91CF911F910F91FF90EF9072
:1051A000DF90CF900895B80189910E945528EACFE9
:1051B00084E98093BC0008958EE14A9B02C081502F
:1051C000E1F74A9BFECF08955A9880E28A95F1F75D
:1051D0005A9A0895FC013BE03A95F1F798E020E0F7
:1051E00080E031E040E14A95F1F7880F4A9B02C028
:1051F0008160232742E04A95F1F7000040E14A959B
:10520000F1F7915079F790E19A95F1F799B132E081
:105210003A95F1F7000040E14A95F1F792FB9927A2
:1052200090F992272081920F90830895EF92FF9238
:105230000F931F93CF93DF930F92CDB7DEB71982F1
:105240008C017C01E60EF11C0E151F0561F481E056
:105250009981911180E00F90DF91CF911F910F9173
:10526000FF90EF9008950E94DC28CE0101960E94E5
:10527000EA28F80181938F01E7CF9093F30480939C
:10528000F204529A5A9A08959093F3048093F20488
:1052900052985A9AEA9AE9E6F0E080818F7C8083FE
:1052A00008956150770B91E001C0990F6A95EAF774
:1052B00020E031E0911108C0222391F05A9A80E257
:1052C0008A95F1F75A980895492F482339F05A9A48
:1052D000232740E24A95F1F79695ECCF5A98F9CFFB
:1052E0005A98EDCFFF920F931F93CF93DF93EC016A
:1052F0008C01060F111DC017D10731F4DF91CF913A
:105300001F910F91FF900895F9900E94E42868E0A2
:105310008F2D0E945129EFCF1F920F920FB60F923F
:1053200011242F933F934F935F936F937F938F93AA
:105330009F93AF93BF93CF93DF93EF93FF935A98CD
:10534000529AC091F204D091F3046D81662321F04A
:105350008E819F810E9472290E94E42880E18A95B3
:10536000F1F75A9852985A9A80E18A95F1F76A8132
:10537000662309F18B819C810E941629E881F981BD
:10538000882311F088E001C082E080830E94DC283D
:10539000FF91EF91DF91CF91BF91AF919F918F914D
:1053A0007F916F915F914F913F912F910F900FBE21
:1053B0000F901F901895E881F981E4CFCF93DF9388
:1053C000C091F204D091F304F894529A5A9885E06F
:1053D0008A95F1F7000052985A9A80E28A95F1F77F
:1053E0004A9B0CC0529A5A9AE881F98181E08083E5
:1053F000789481E090E0DF91CF9108956D816623EC
:1054000081F08E819F810E94162981110AC0529AD3
:105410005A9AE881F98182E08083789482E090E072
:10542000EACF0E94DC2880E28A95F1F75A98529AD6
:1054300080E18A95F1F76A81662321F08B819C8156
:105440000E9472290E94E428E881F98110827894F0
:1054500090E080E0D0CF97FB072E16F4009407D0A1
:1054600077FD09D00E944C2A07FC05D03EF49095A8
:1054700081959F4F0895709561957F4F0895EE0F28
:10548000FF1F0590F491E02D09946927962769275D
:105490007827872778270895AA1BBB1B51E107C0EF
:1054A000AA1FBB1FA617B70710F0A61BB70B881FB4
:1054B000991F5A95A9F780959095BC01CD01089543
:1054C000FB01DC0101900D920020E1F70895F999AC
:1054D000FECF92BD81BDF89A992780B50895A8E1C5
:1054E000B0E042E050E00C949B2A262FF999FECFC1
:1054F00092BD81BDF89A019700B4021639F01FBA27
:1055000020BD0FB6F894FA9AF99A0FBE0895039643
:10551000272F0E94762A0E94752A252F0E94762A1C
:10552000242F0C94762A0196272F0E94762A0C9419
:10553000752ADC01CB01FC01F999FECF06C0F2BD52
:10554000E1BDF89A319600B40D9241505040B8F741
:105550000895F894FFCFAC0FAC0FB50FB50FB70F90
:10556000B50FB50FB50FAC0FAC0FBC0FB50FB50F26
:10557000BC0F65148D14E0148D14E014C014F814DD
:10558000E014F5150216CB1ACB1A221B221B541B52
:105590006E1BFE1AFE1A791B4D1C5D1C5D1CA4259A
:1055A000A825EB25FC2507262626F925F925F9252A
:1055B000F925F92529262C263026562678267B26FD
:0455C0007D26A2267C
:1055C40036323331F7F6F5946697C6343500000069
:1055D400000000010021007F220003AF0981106058
:1055E400105C10581001D30418D40406EC043632AD
:1055F4003331F7F6F55B202020205D00494E5055ED
:1056040054533A00818283E200E900EA00B500B60F
:1056140000B700CD008301CC008A019201940121DE
:1056240002230224022502260227022A02B300B41E
:10563400006F00700000081018181008004022B60F
:0C56440084016201AC00320F4B0F6B0FB1
:00000001FF
