:100000000C94ED070C9434080C9434080C94062AD4
:100010000C9434080C9434080C9434080C94340870
:100020000C9434080C9434080C9492110C946516BA
:100030000C947E270C9434080C9434080C943408E7
:100040000C9434080C9434080C9434080C94340840
:100050000C9434080C94A1120C9434080C943408B9
:100060000C9434080C9434080C9434080C94340820
:100070000C9434080C9434080C9434080C94340810
:100080000C9434080C9434080C9434080C94340800
:100090000C9434080C9434080C9434080C943408F0
:1000A0000C9434080C9434080C94340805010902AB
:1000B000A10185020901A1000509190129081500FE
:1000C0002501950875018102050109300931158165
:1000D000257F95027508810609381581257F9501D0
:1000E00075088106050C0A38021581257F95017572
:1000F000088106C0C005010980A101850319012AF4
:10010000B700150126B700950175108100C0050CD8
:100110000901A101850419012AA002150126A002E6
:10012000950175108100C005010906A1018505052D
:100130000719E029E71500250195087501810205D9
:1001400007190029EF1500250195F07501810205B9
:10015000081901290595057501910295017503910D
:1001600001C00660FF0961A1010962150026FF00B8
:100170009520750881020963150026FF00952075FA
:10018000089102C005010906A101050719E029E748
:1001900015002501950875018102950175088101F9
:1001A0000507190029FF150026FF0095067508812F
:1001B000000508190129059505750191029501753C
:1001C000039101C0000000000000000000000000DA
:1001D000000000000000000000000000000000001F
:1001E000000000000000000000000000000000000F
:1001F00000000000000000000000000000000000FF
:1002000000000000000000000000000000000000EE
:100AA000000000000000000000000000002E001EFA
:100AB000001F0020002100220050004C0014001AEA
:100AC0000008001500170001532A00040016000753
:100AD0000009000A00006FE1001D611B00060019FB
:100AE000000500000035413400E10450006564E376
:100AF000000000000000002C004A002A004D000009
:100B0000002D00270026002500240023004F00317F
:100B100000130012000C0018001C0001533468334D
:100B2000420F000E000D000B000067E50038613732
:100B3000003600100011000000015830002F005155
:100B4000002961E2000000000000002B004B00289B
:100B5000004E00000001003A003B003C003D003E1A
:100B600000010001001E021F022F023002310201AB
:100B700000010020022102260227023500010001A7
:100B800000220223022F0030003502000001000184
:100B90000001000100C35C0100000000000000CA69
:100BA0005C0100C95C0100000044004300420041B8
:100BB0000040003F000100450025022600250024DA
:100BC000005200010001002E0223002200210051EA
:100BD0000001000100310020001F001E002402005F
:100BE0000001002E00270037000100C25C00000059
:100BF000000000C65C0100C55C01000000010001AE
:100C000000010001000100010001000100010001DC
:100C100000010001000100010001000100010001CC
:100C200000010001000100010001000100010001BC
:100C30000001000000010001000100F400010001BA
:100C400000000000000000010001000100010000A0
:100C5000000100010001000100010001000100018C
:100C600000010001000100010001000100AE0001CF
:100C7000000100010001000100010001000100ABC2
:100C800000AC0001000100000001000100A800AA62
:100C9000000100010000000000000001000100B69A
:100CA000000100000001000100010001000100013D
:100CB000000100010001000100010001000100012C
:100CC000000100010001000100010001000100011C
:100CD000000100010001000100010000000100010D
:100CE00000010001000100010000000000000001FF
:100CF00000010001000100000001000100010001ED
:100D000000010001000100010001000100010001DB
:100D100000010001000100010001000100010001CB
:100D200000010001000100010001000100010000BC
:100D300000010001000100010001000100000000AD
:100D40000000000100010001000100000000AF00F0
:100D50000000000000000000000000000000000093
:100D60000000000000000000000000000000000083
:100D70000000007E0F00D4FFFFFFC70000007800D6
:100D8000000000000000002A2B28000000000000E6
:100D90000000000000000000000029000000002CFE
:100DA0001E3420212224342627252E362D3738279D
:100DB0001E1F202122232425263333362E37381FA9
:100DC0000405060708090A0B0C0D0E0F101112136B
:100DD0001415161718191A1B1C1D2F3130232D3509
:100DE0000405060708090A0B0C0D0E0F101112134B
:100DF0001415161718191A1B1C1D2F3130354C7F6E
:100E00007F7F6162637F7F7F7F7F00000000000043
:100E100000000000000000000000000000000000D2
:100E200000000000000000000000000000000000C2
:100E300000000000000000000000000000000000B2
:100E400000000000000000000000000000000000A2
:100E50000000000000000000000000000000000092
:100E60000000000000000000000000000000000082
:100E70000000000000000000000000000000000072
:100E80000000000000000000000000000000000062
:100E90000000000000000000000000000000000052
:100EA0000000000000000000000000000000000042
:100EB0000000000000000000000000000000000032
:100EC0000000000000000000000000000000000022
:100ED0000000000000000000000000000000000012
:100EE0000000000000000000000000000000000002
:100EF000000000000000000000000000000000DA18
:100F00000281FFD9F1DB20A4A62EAF00A0C000A172
:100F1000C800AED580A81FD300408D142000343AFD
:100F20004F544845525300333A4F464649434500D3
:100F3000323A434F444500313A484F4D45004C4109
:100F40005945523A0000AE09025B00030100A0FAC5
:100F5000090400000103010100092111010001221F
:100F60004000070581030800010904010002030095
:100F7000000009211101000122220007058203203F
:100F8000000107050303200001090402000103001A
:100F9000000009211101000122B600070584032089
:100FA00000011201100100000008FCA81DA20100B0
:100FB000010200010E034500520047004F003500BA
:100FC00037000000100341004E005900490059004D
:100FD00041004F0000000403090411241FBECFEF9D
:100FE000DAE0DEBFCDBF04B603FE27C08091F40473
:100FF0009091F504A091F604B091F7048730904BDE
:10100000A740B04BD1F41092F4041092F504109262
:10101000F6041092F70414BE84B7877F84BF0FB61E
:10102000F894A89580916000886180936000109288
:1010300060000FBEE0E0F8E3099511E0A0E0B1E048
:10104000E8EBF6E502C005900D92A438B107D9F798
:1010500024E0A4E8B1E001C01D92A43FB207E1F78B
:101060000E9418210C94232B0C940000E8EDF0E072
:1010700080818E7F80831092E2001092DA001092BD
:10108000E100A0EEB0E08C9181608C9380818F773D
:10109000808319BCA7EDB0E08C918E7F8C9380810A
:1010A0008F7E80831092950408952091E400309102
:1010B000E50095E6A9012091EC00822F817020FFC8
:1010C00006C08091E80080FF06C080E0089520916E
:1010D000E80022FD1AC08091BA04882389F0853087
:1010E00089F08091EB0085FD0FC02091E4003091E4
:1010F000E50042175307F9F29150E1F684E00895B4
:1011000082E0089583E0089581E00895EF92FF92D0
:101110000F931F93CF937C018B010E945508C82F1A
:10112000811117C08091E80085FD0BC08091E80017
:101130008E778093E8000E945508882399F3C82F82
:1011400008C0F70181917F018093F10001501109DE
:1011500049F78C2FCF911F910F91FF90EF90089539
:101160008091BC0487FF13C08091E80082FF06C015
:101170008091E8008B778093E80004C08091BA04E6
:101180008111F2CF08958091BA048823D9F3809118
:10119000E80080FFF8CF8091E8008E77ECCF982FA1
:1011A0009093E900242F762F50E0891731F0709149
:1011B000EC002091ED005091F00021FD07C09F5FF1
:1011C000973071F78093E90081E008953091EB004A
:1011D0003E7F3093EB003091ED003D7F3093ED008A
:1011E0003091EB0031603093EB007093EC00209372
:1011F000ED005093F0002091EE0027FDE0CF80E05D
:101200000895CF92DF92EF92FF920F931F93CF93A7
:10121000DF93C8EDD0E088818F7E8883E7EDF0E032
:1012200080818160808384E082BF81E08093950427
:1012300088818E7F888302EE10E0F8011082109280
:10124000DA0081EEC82ED12CF601108288818F77CA
:10125000888388818068888388818F7D888319BC92
:101260001092BA041092BB041092B9041092B80400
:1012700090EEE92EF12CF70180818B7F80838881AD
:101280008160888342E060E080E00E94CF08F60140
:1012900080818E7F8083F80180818160808380815E
:1012A00088608083F70180818E7F80838881806160
:1012B0008883DF91CF911F910F91FF90EF90DF9086
:1012C000CF900895FC018091C2049091C3048617C9
:1012D0009707A0F06115710529F49091E8009E77B9
:1012E0009093E80090E06115710551F4911108C0E8
:1012F0008091E80082FF34C080E00895BC01F2CF05
:101300008091BA048823C1F18530C1F18091E80051
:1013100083FD30C08091E80082FDEACF8091E80033
:1013200080FFE1CF8091F3002091F200382F61150A
:10133000710519F02830310558F091E02830310559
:1013400009F090E02091E8002E772093E800CBCFC1
:1013500081918093F100615071092F5F3F4FE7CF7A
:101360008091BA04882341F0853041F08091E800F3
:1013700083FFBECF81E0089582E0089583E0089561
:1013800080E008958091970408959C014FB7F894E8
:101390008091270290912802A0912902B0912A02FF
:1013A0004FBF821B930B08952FB7F89460912702CB
:1013B000709128028091290290912A022FBF0895EE
:1013C000209125012223C9F020913D0227FF15C05D
:1013D000E62FE695E695E695EE31D8F4E80FF92F7D
:1013E000F11D677021E030E001C0220F6A95EAF735
:1013F00020958281282322830895FC013296089645
:101400002191621303C0DF0111971C92E817F907BD
:10141000B9F70895209125012223C1F020913D02C2
:1014200027FF14C0E62FE695E695E695EE31F8F431
:10143000E80FF92FF11D677021E030E001C0220FA5
:101440006A95EAF78281822B82830895FC013296A5
:101450002FEF30E04191641751F02F3F19F4411103
:1014600001C0232F3F5F3630A9F72F3F09F40895BD
:10147000820F911D27FD9A95FC016283089580914A
:10148000210290912202892B90912002892B809336
:101490008601E0913F02F0914002309799F09091DF
:1014A0002501992349F090913D0297FF05C0809353
:1014B000870185E0809386010280F381E02D86E834
:1014C00091E00994089527E0929F800D1124982FB0
:1014D000977086958695869525E0829FF001112468
:1014E000E751FE4F50E040E080E0219130E0092ECE
:1014F00002C0369527950A94E2F721703327042E0F
:1015000001C0220F0A94EAF7822B4F5F5F4F4530EC
:10151000510559F7089527E0929F800D1124982FC7
:10152000977041E001C0440F9A95EAF78695869539
:10153000869595E0899FF0011124E751FE4F90E0D8
:1015400080E070E05191DF0111979B01082E02C0ED
:10155000369527950A94E2F72170219525272423B3
:1015600025272C9301968530910561F70895809188
:10157000E8019091B701981301C008958F5F8770BB
:10158000FACF882341F0809590912102892380939E
:1015900021020C943F0A0895882339F0909121028A
:1015A000982B909321020C943F0A08952091AD014D
:1015B0003091AE012817390771F09093AE018093F6
:1015C000AD01E0913F02F0914002309721F000849C
:1015D000F185E02D099408952091AB013091AC0183
:1015E0002817390771F09093AC018093AB01E0911B
:1015F0003F02F0914002309721F00680F781E02D04
:1016000009940895E0913F02F0914002309721F053
:101610000190F081E02D099480E00895613092E01E
:10162000790710F060E072E0FB01ED59FD4F908109
:101630009817B9F0808385E0769567958A95E1F7EC
:1016400021E030E002C0220F331F6A95E2F780915B
:10165000650490916604822B932B9093660480938B
:101660006504089540917704803F59F4809178048F
:1016700087FF0DC01092780441110BC010927204C4
:1016800008C0813F81F48091780418169CF34423AC
:1016900081F08091790490917A04892B09F05AC0E5
:1016A00010926F040895823F49F447FFF0CF1092E3
:1016B0007704809178048111ECCFE0CF833F19F457
:1016C0001416ACF3E4CF90917904893F29F41916EC
:1016D000F4F610927904DBCF8A3F19F497FFD7CF45
:1016E000F8CF90917A048B3F29F497FFD0CF1092D6
:1016F0007A04CDCF8C3F19F41916CCF3C8CF9CE0F7
:10170000980F953090F4845F990B21E030E0B90197
:1017100002C0660F771F8A95E2F7CB018095909102
:101720007604892380937604B2CF8D3F31F4809183
:10173000B0018E7F8093B001AACF8E3F21F48091BB
:10174000B0018D7FF7CF8F3F09F0A1CF8091B0011D
:101750008B7FF0CF08958091B00180FD16C081FD90
:1017600016C082FD16C080916F048823A1F08832D4
:1017700080F428E0829FC001112468E270E00E949A
:10178000A52A862F672B39F0089582E0089584E01A
:10179000089588E0089581E008958091B00180FD6A
:1017A00016C081FD16C082FD18C080917204882386
:1017B00091F08C3390F423E2829FC00111246CE3FA
:1017C00070E00E94A52A862F672B49F0089588E0D3
:1017D000089581E1089585E0089583E2089581E008
:1017E0000895803F31F40E94CD0B81958093780459
:1017F0000895813F19F40E94CD0BF8CF823F31F458
:101800000E94CD0B8195809377040895833F19F44E
:101810000E94CD0BF8CF893F29F40E94AB0B809337
:10182000790408958A3F21F40E94AB0B8195F7CF8C
:101830008B3F31F40E94AB0B819580937A0408951D
:101840008C3F19F40E94AB0BF8CF9CE0980F9530B9
:1018500070F4845F990B21E030E001C0220F8A957B
:10186000EAF780917604822B8093760408958D3F69
:1018700031F48091B00181608093B00108958E3F72
:1018800021F48091B0018260F7CF8F3FB9F780914A
:10189000B0018460F1CFF894E82FE295EF70F0E0AA
:1018A00031A1282F2F7081E090E001C0880F2A9588
:1018B000EAF7982F9095932391A392A1892B82A365
:1018C0007894089590913D0292FF06C0282F2871C8
:1018D0002830F9F4877F846093FF06C0282F287191
:1018E0002831F1F4877E846120913E0220FF06C0FA
:1018F000382F38713830D9F4877F816021FF06C0D6
:10190000282F28712831D1F4877E816194FD877E4C
:101910000895282F24712430F9F68B7F8860DCCF5E
:10192000282F2471243101F78B7E8861DDCF382F79
:101930003171313019F78E7F8860E0CF282F217107
:10194000213121F78E7E8861E1CF2F923F924F9215
:101950005F926F927F928F929F92AF92BF92CF923F
:10196000DF92EF92FF920F931F93CF93DF9300D0FC
:101970000F92CDB7DEB72983282F30E0922F88272A
:101980009B838A832C0190E2490E511CC42ED12CDA
:1019900032016C0C7D1C8B01EA81FB81E056FF4F0C
:1019A000EC0DFD1DFB83EA831B01F9812F0E311C19
:1019B0008A809B805301F12CE12CF80184918152A3
:1019C000990B28E1289FF001299FF00D1124EE0DBD
:1019D000FF1DEB53FE4F8491B7016A0D7B1D0E94E2
:1019E0000E0BF80184918152990B28E1289FF00198
:1019F000299FF00D1124EE0DFF1DEF52FE4F849133
:101A0000B701680D791D0E940E0B3FEFE31AF30A30
:101A10008CE0E816F10489F69CE0A90EB11C0F5F7A
:101A20001F4FECE08E0E911C0215130509F0C3CF79
:101A30002981FCE02F9FC0011124680E791EEA81E4
:101A4000FB81E80FF91FFB83EA8310E000E084ECE0
:101A5000E82E81E0F82EC016D106B1F40F900F9059
:101A60000F90DF91CF911F910F91FF90EF90DF903A
:101A7000CF90BF90AF909F908F907F906F905F902E
:101A80004F903F902F900895F7018491B2010E94EA
:101A90000E0BF7018491B301600F711F0E940E0BB2
:101AA000F7018491B20160587F4F0E940E0BF7013D
:101AB00084916A817B81600F711F0E940E0B0F5F02
:101AC0001F4FFFEF4F1A5F0AC6CFCF92DF92EF9200
:101AD000FF920F931F93CF93DF936C017B0164E61A
:101AE00070E088E70E947328EC0197FD12C010E0B7
:101AF00000E0F601E00FF11F849164E670E00E94BF
:101B0000CF28EC01892B29F40F5F1F4F0E151F05FD
:101B100081F70E945229CE01DF91CF911F910F9141
:101B2000FF90EF90DF90CF900895CF93C0916B041A
:101B300080916E048823D1F00E94D409605A7541C7
:101B40008F4F9F4F6093670470936804809369047C
:101B500090936A04C11108C062E070E08DE49DE0DA
:101B60000E94650D892B29F0C0916B048C2FCF91B9
:101B7000089581E080936B04F7CFCF9384E090E0E9
:101B80000E94E12AC82F82E290E00E94E12A982F69
:101B90008C2FCF9108950F931F93CF93DF93C42F72
:101BA000D0E0CC0FDD1F2EE0629FC00DD11D1124AF
:101BB00038EA839FC00DD11D1124CE0187960E9463
:101BC000E12A082F10E0102F0027CE0188960E94EE
:101BD000E12A9801282BC901DF91CF911F910F9124
:101BE0000895462F843038F47C3028F4673018F498
:101BF000672F0C94CB0D90E080E00895CF93DF9396
:101C00000E94F10DEC018238910581F1B0F581332C
:101C1000910509F491C020F58932910509F485C038
:101C20008A9709F490C0C11520E5D20708F0A7C033
:101C3000C11530E4D30708F0F6C0CF3BD10508F05A
:101C400089C0C83AD10508F0E1C0C53AD10508F00D
:101C5000D5C0C430D105F8F4C130D105E1F040C0A1
:101C60008533910509F45AC0C997E9F680913D0280
:101C7000837089F0C0EED0E00EC0833E910599F1EB
:101C800070F4803E910501F1823E910561F68091EC
:101C90003D0282FD21C0CE01DF91CF910895863EA5
:101CA000910561F1873E910571F1843E910509F03E
:101CB000BACF80913E0281FFEECF80913D02C7EE08
:101CC000D0E084FD0DC0E7CF80913D0280FDFEC0D5
:101CD00090913E0290FFDFCFC3EED0E084FFDBCFD8
:101CE000D0E0C0E0D8CF80913D0282FDF2C090915B
:101CF0003E0290FDBFCF84FFCECFF2CF80913D0258
:101D000083FDDDCFC8CF80913D0283FDE5C090917A
:101D10003E0291FFF0CFC4EED0E0BDCF80913D02F6
:101D200085FFB9CFC9E2D0E0B6CF80913D0285FFF3
:101D3000B2CFC5E3D0E0AFCF80913D0286FFABCFFD
:101D4000CAE2D0E0A8CF80913D0286FFA4CFC1E3D4
:101D5000D0E0A1CFCF3FD10509F058F4C03FD10565
:101D600008F05FC0CE01815E9109079708F493CF18
:101D7000B7CFC11540E2D40708F48DCFB1CFC1155C
:101D800084E5D807A0F4C11593E5D90708F07CC015
:101D9000C11522E5D20708F066C0C11531E5D307A9
:101DA00008F444C0DC2FCC27C16FD06A74CFC115B2
:101DB0004AE5D40778F4C11589E5D80708F078C05A
:101DC000C11598E5D90708F48BCFDC2FCC27C06F5D
:101DD000D06A61CFCE0190568115904208F080CF35
:101DE0008D2F8F710E94620C90E0982F8827882792
:101DF0009F719C012C2BE901D0624DCFC55AD0E0D8
:101E0000C45CDE4FC881D0E0D06445CFC85AD0E072
:101E1000CC0FDD1FC15CDE4F0990D881C02DD4648A
:101E20003ACFD06538CFDF70D06A35CFCE0164E0CD
:101E3000969587956A95E1F783702C2F26952695C0
:101E4000237040E2249F90011124382B8C2F837043
:101E5000C1E0D0E002C0CC0FDD1F8A95E2F7C22BB3
:101E6000D32BDC6818CFCE018370992721E030E0B6
:101E700002C0220F331F8A95E2F7C695C69580E20D
:101E8000C89FE0011124EBCFCE018370992721E098
:101E900030E002C0220F331F8A95E2F7C695C6953F
:101EA00090E2C99FE0011124C22BD32BDA68F3CE54
:101EB0008C2F8F700E94620C34E0D695C7953A95AE
:101EC000E1F7CF709C2FEC01D069E5CEC9E3D0E0FB
:101ED000E2CEC2EED0E0DFCEC6EED0E0DCCEBF92E6
:101EE000CF92DF92EF92FF920F931F93CF93DF93E6
:101EF0008C01C090C704D090C804E090C904F09051
:101F0000CA048091230290912402A0912502B091ED
:101F10002602C82AD92AEA2AFB2ACFE1D0E0BC2E21
:101F2000D701C6010C2E04C0B695A7959795879545
:101F30000A94D2F780FD0EC0219788F7B12C8B2D23
:101F4000DF91CF911F910F91FF90EF90DF90CF9095
:101F5000BF900895B8018C2F0E94FE0D019761F388
:101F6000EECFCF93DF93EC010E946F0FBE01DF91A4
:101F7000CF910C94FE0D0E94B10F292F2F709295D6
:101F80009F7092509E3078F4E92FF0E0EB5DF44DB5
:101F90000C94B92A803F19F020F4883E20F481E0A7
:101FA0000895843FE1F380E00895883EC0F3813FC7
:101FB000D1F7F5CF822F86958695869508956F92F5
:101FC0007F928F929F92AF92BF92CF92DF92EF92C9
:101FD000FF920F931F93CF93DF938DEAC82E8AE071
:101FE000D82E9DEDE92EF12CE701C85AD109360112
:101FF0001BC0F50185909490692DC8010E94EF2ABD
:10200000682DC80101960E94EF2A82E0A80EB11C3B
:102010000E5F1F4FC017D10761F78EE0680E711C6D
:102020002E96CE15DF0529F08E010E5011095301B1
:10203000E0CF7E0188EAE80EF11C88EAC80ED11CC8
:102040008DE7E81683E0F80679F6DF91CF911F91CE
:102050000F91FF90EF90DF90CF90BF90AF909F9047
:102060008F907F906F900895CF93DF93C7ECD2E06D
:1020700060E0CE010E94EF2A2196C11584E0D807C6
:10208000B9F7DF91CF910895CF93DF9300D00F92EE
:10209000CDB7DEB79091BA04943011F589837B8374
:1020A0006A839093E9008FEF9091E800815095FD4D
:1020B00006C095ED9A95F1F700008111F5CF80915A
:1020C000E80085FF0DC050E040E063E070E0CE0125
:1020D00001960E9486088091E8008E778093E80040
:1020E0000F900F900F90DF91CF910895BC0184E085
:1020F0000C944410BC0183E00C9444109C0184E0D7
:102100008093E9009FEF8091E800915085FD06C023
:1021100085ED8A95F1F700009111F5CF8091E800E7
:1021200085FF0CC050E040E066E070E0C9010E940D
:1021300086088091E8008E778093E8000895CF9319
:10214000DF93EC01809125018823B1F180913D025C
:1021500087FF32C060E284E08093E9008FEF9091C6
:10216000E800815095FD06C095ED9A95F1F70000C5
:102170008111F5CF8091E80085FF1BC0809125017A
:1021800070E050E040E0811104C050E040E068E0C1
:1021900070E0CE010E9486088091E8008E778093DF
:1021A000E80080E2FE01A8E9B4E001900D928A9572
:1021B000E1F7DF91CF91089568E081E0CDCF81E034
:1021C0008093E00080E28093D8001092C9008FE1F4
:1021D0009EE40197F1F700C0000087E090EBDC017E
:1021E0008093F4049093F504A093F604B093F7045D
:1021F00088E19CE00FB6F894A895809360000FBE2C
:1022000090936000FFCF8091AA01811118C088ECE3
:102210009091E30097FD10C0EFE3FCE93197F1F7EF
:1022200000C000008150A1F782E08093AA010E94C3
:1022300036081092BA0403C081E08093AA0181E0BD
:102240009091AA01913011F080E0089508956AEE0E
:102250007EEF90E080E00E940D2B60E082E090E055
:102260000E94EF2A60E083E090E00E94EF2A109243
:10227000230210922402109225021092260260E09E
:1022800084E090E00E94EF2A60E082E290E00E9409
:10229000EF2A60E085E090E00E94EF2A60E086E0AF
:1022A00090E00E94EF2A6FEF87E090E00E94EF2A13
:1022B00040E050E0BA0188E090E00E94012B60E02D
:1022C0008DE090E00E94EF2A40E050E0BA0188E102
:1022D00090E00E94012B60E087E190E00E94EF2AED
:1022E00040E050E0BA018CE190E00E94012B70E0E8
:1022F00060E080E290E00E940D2B40E050E0BA01E7
:1023000088E190E00E94012B40E050E0BA018FE0AC
:1023100090E00E94012B40E050E0BA0183E190E0A0
:102320000C94012B1F920F920FB60F9211242F9332
:102330003F934F935F936F937F938F939F93AF934D
:10234000BF93EF93FF938091E10082FF09C08091DA
:10235000E20082FF05C08091E1008B7F8093E10065
:102360008091DA0080FF24C08091D80080FF20C0D7
:102370008091DA008E7F8093DA008091D90080FF0F
:102380009BC080E189BD82E189BD09B400FEFDCF1B
:1023900081E08093BA0480919504811109C00E9464
:1023A00036080E9401098091E20084608093E20077
:1023B0008091E10080FF17C08091E20080FF13C090
:1023C0008091E2008E7F8093E2008091E200806144
:1023D0008093E2008091D80080628093D80019BC7D
:1023E00085E08093BA048091E10084FF29C0809148
:1023F000E20084FF25C080E189BD82E189BD89B505
:10240000982F917080FFFBCF8091D8008F7D8093B3
:10241000D8008091E1008F7E8093E1008091E200FE
:102420008F7E8093E2008091E20081608093E200E1
:102430008091BB04882309F445C084E08093BA04EA
:102440008091E10083FF27C08091E20083FF23C0D9
:102450008091E100877F8093E10082E08093BA045D
:102460001092BB048091E1008E7F8093E100809107
:10247000E2008E7F8093E2008091E2008061809391
:10248000E20042E060E080E00E94CF088091F0002E
:1024900088608093F000FF91EF91BF91AF919F9181
:1024A0008F917F916F915F914F913F912F910F90FD
:1024B0000FBE0F901F90189519BC1092BA0410927D
:1024C000950476CF8091E30087FD93E09093BA0462
:1024D000B7CF0F931F930E940311882321F01F9100
:1024E0000F910C94D4090E94D40900912B021091F1
:1024F0002C0220912D0230912E02600F711F821F3D
:10250000931F1F910F910895CF92DF92EF92FF9248
:102510006B017C010E94031181110EC00E94D4093D
:10252000C61AD70AE80AF90AC0922B02D0922C02E6
:10253000E0922D02F0922E02FF90EF90DF90CF906C
:10254000089578941F921FB61F9211248F939F9322
:10255000AF93BF938091270290912802A091290206
:10256000B0912A020196A11DB11D8093270290937C
:102570002802A0932902B0932A02BF91AF919F91A4
:102580008F911F901FBE1F9018952FB7F8948091C0
:10259000270290912802A0912902B0912A022FBF10
:1025A00008950E94C5129C0190917704809178044F
:1025B000982B21F030937404209373049091790444
:1025C00080917A04982B21F0309371042093700449
:1025D000E0913F02F0914002309749F082E0809311
:1025E00075040480F581E02D85E794E00994089551
:1025F00090E080E00E94EC0A90E080E00E94D60A21
:1026000010922202109220020E943F0A86E0E5E723
:10261000F4E0DF011D928A95E9F71092720410929E
:102620006F041092B0010C94D1126093C7047093A0
:10263000C8048093C9049093CA040C94F8120F93B1
:102640001F936091C7047091C8048091C904909150
:10265000CA048B019C0106701127222733270630FC
:1026600011052105310529F468601F910F910C9423
:102670001513677FFACF0F931F9341E050E060E09E
:1026800070E004C0440F551F661F771F8A95D2F76C
:10269000CB01BA0160957095809590950091C70423
:1026A0001091C8042091C9043091CA046023712399
:1026B000822393231F910F910C9415130F931F9353
:1026C00041E050E060E070E004C0440F551F661F19
:1026D000771F8A95D2F78091C7049091C804A09182
:1026E000C904B091CA048A019B01082B192B2A2B1B
:1026F0003B2BC901B8011F910F910C9415136093E6
:1027000023027093240280932502909326020C9456
:10271000F8121092210280912501E8E8F1E0882367
:1027200059F080913D0287FF07C08EE1DF011D92C5
:102730008A95E9F70C94F81286E0F8CF1F93CF93AF
:10274000DF93CDB7DEB7AA970FB6F894DEBF0FBE02
:10275000CDBF8CEB94E02091F100DC012D93CD01F5
:10276000B4E0843C9B07B9F78091BD04833009F441
:1027700071C0B8F4813009F448C0823009F4B2C0A5
:102780008091E80083FF3AC18091BC049091BD0420
:102790009A3008F033C1E92FF0E0ED5CF44D0C9471
:1027A000B92A8A3009F48DC08B3009F470C08930A1
:1027B00039F78091BC04813219F78091C00490915F
:1027C000C104009711F00297D9F68091E800877F45
:1027D0008093E8008091E80082FF37C09091F30079
:1027E0008091F200029729F48091F1008B7F813073
:1027F00021F48091F100809397048091E8008B7719
:102800008093E8000E94B008BBCF8091BC04813A5D
:1028100009F0B6CF8091E800877F8093E80080912F
:10282000C0049091C104892B61F460E288E994E0CE
:1028300070E00E9462098091E8008B778093E80045
:102840009FCF60E090E080E0F3CF8091BA048111E7
:10285000C1CF96CF8091BC04813A09F091CF80918D
:10286000C0049091C104892B09F08ACF8091E800BF
:10287000877F8093E8008091E80080FFFCCF809103
:1028800025018093F1008091E8008E77B9CF809187
:10289000BC04813209F074CF8091C0049091C104CE
:1028A000892B09F06DCF8091E800877F8093E80045
:1028B0000E94B0088091BE04809325010E94891374
:1028C0005FCF8091BC04813209F05ACF8091E8003B
:1028D000877F8093E8000E94B0088091BF048093B6
:1028E00096044ECF8091BC04813A09F049CF809183
:1028F000E800877F8093E8008091E80080FFFCCFAC
:1029000080919604BECF803899F0823809F076C065
:102910008091C0048F70873008F070C08093E90008
:102920008091EB0085FB882780F91092E90006C0B2
:102930008091B8049091B904911182609091E8005F
:10294000977F9093E8008093F1001092F1008091BE
:10295000E8008E77B5C1882309F4A2C1823009F05E
:102960004DC08091BE048111A6C18091C0048F70BA
:102970002FEF280F263008F041C08093E900209106
:10298000EB0020FF98C1933031F48091EB0080621E
:102990008093EB0090C19091EB0090619093EB00DD
:1029A00021E030E001C0220F8A95EAF72093EA0087
:1029B0001092EA008091EB008860EACF81111EC07E
:1029C0001091BE041F778091E3008078812B809363
:1029D000E3008091E800877F8093E8000E94B008C0
:1029E0008091E80080FFFCCF8091E30080688093B5
:1029F000E30082E0111183E08093BA048091E80043
:102A000083FF0AC08091E800877F8093E80080916F
:102A1000EB0080628093EB00AA960FB6F894DEBFBD
:102A20000FBECDBFDF91CF911F91089580588230A6
:102A300028F72091BE043091BF042C3DE3E03E070F
:102A4000A1F583E08A838AE289834FB7F894DE0197
:102A5000139620E03EE051E2E32FF0E05093570060
:102A6000E49120FF03C0E295EF703F5FEF708E2F7F
:102A700090E0EA30C0F0C7968D939D932F5F24318C
:102A800059F74FBF8091E800877F8093E8006AE2A2
:102A900070E0CE0101960E9462098091E8008B7778
:102AA0008093E800ABCFC096E7CF8091C0049091AF
:102AB000C104432F55274330510509F44AC078F526
:102AC0004130510509F47AC08BE590E0E7E4FFE07E
:102AD0004230510509F092CF2091E800277F2093E2
:102AE000E8002091C2043091C3048217930708F4D0
:102AF0009C0140E02115310509F065C0411163C01A
:102B00008091E80082FDC9CF8091BA04882329F220
:102B1000853019F28091E80083FFF2CFBECF4132B9
:102B2000510509F43CC04232510509F067CF8330AA
:102B3000910508F063CFFC01EE0FFF1FE858FE4F30
:102B40000190F081E02D8B589E4FDC018C9190E03C
:102B50001AC0332721303105D1F02115310561F03C
:102B60002230310509F04ACFE4EBFFE0E4918E2FEB
:102B700090E0E4EBFFE007C0E6EDFFE0E4918E2F8C
:102B800090E0E6EDFFE0009709F438CFA5CFE4EC44
:102B9000FFE0E4918E2F90E0E4ECFFE0F4CF83308F
:102BA000910508F02BCF880F991FFC01E258FE4FCA
:102BB0000190F081E02D89E090E08ECF82E190E0FD
:102BC000E2EAFFE089CF8091BA04882309F465CF57
:102BD000853009F462CF8091E80083FD5ECF80915B
:102BE000E80082FD8DCF8091E80080FF83CF909137
:102BF000F3008091F2002115310519F0883091051C
:102C000050F041E0089709F040E08091E8008E77AD
:102C10008093E8006FCF44914093F10031962150AA
:102C200031090196E8CF803809F0E8CE8091E800BC
:102C3000877F8093E8008091BB048093F10087CE6A
:102C40008111DCCE1091BE04123008F0D7CE8091F5
:102C5000E800877F8093E8001093BB040E94B008CF
:102C6000112311F084E005C08091E30087FDFACFC5
:102C700081E08093BA0442E061EC81E00E94CF08D9
:102C800042E261EC84E00E94CF0842E261EC82E023
:102C90000E94CF0842E260EC83E00E94CF08AECEF3
:102CA0008091BE04813009F0A9CE81E0933009F013
:102CB00080E08093B9041092E9008091E800877F5A
:102CC0008093E8000E94B00899CE1F920F920FB631
:102CD0000F9211242F933F934F935F936F937F93A2
:102CE0008F939F93AF93BF93CF93DF93EF93FF9314
:102CF000D091E900DF708091EC00C82FC17080FD99
:102D0000C0E81092E9008091F000877F8093F00086
:102D100078940E949E131092E9008091F0008860E0
:102D20008093F000CD2BCF70C093E900FF91EF911D
:102D3000DF91CF91BF91AF919F918F917F916F91D3
:102D40005F914F913F912F910F900FBE0F901F9069
:102D500018958823B1F19CEF980F913A38F4682FB9
:102D600086E891E00E94E0090C943F0A90E2980FF7
:102D7000983088F4877021E030E0A90102C0440F48
:102D8000551F8A95E2F7CA01809590912102892307
:102D900080932102E9CF9BE5980F933020F490E0D7
:102DA00080E00C94EC0A98E5980F973120F490E0BD
:102DB00080E00C94D60A803F20F00E94320B0C94E5
:102DC000D1120895CF93C82F882309F46FC08CEFD8
:102DD0008C0F813AC0F580912501882311F18091F3
:102DE0003D0287FF1EC0EC2FE695E695E695F0E0E4
:102DF000EA57FE4F828190E04C2F477021E030E08F
:102E000002C0220F331F4A95E2F782239323892BB6
:102E100091F06C2F86E891E00E94E0090E943F0A41
:102E20000AC0E8E8F1E08EE891E02191C21789F349
:102E30008E179F07D1F76C2F86E891E00E940A0A4F
:102E4000CF910C943F0A80E28C0F883068F4C770F1
:102E500021E030E001C0220FCA95EAF780912102FB
:102E6000822B80932102ECCFEBE5EC0FE33040F4B2
:102E7000F0E0E45CFE4F808190E0CF910C94EC0A8E
:102E8000E8E5EC0FE73150F4F0E0EE0FFF1FE15CF6
:102E9000FE4F80819181CF910C94D60AC03F30F0D3
:102EA0008C2F0E94F10BCF910C94D112CF910895E9
:102EB0001F93CF93DF93182FCFE0D0E0893311F425
:102EC000C0E5D0E0812F0E94E2168FE99FE00197D4
:102ED000F1F700C000002197C1F7812FDF91CF915A
:102EE0001F910C94A9160F931F93CF93DF93C62FB6
:102EF000D42F022FFC0182818823A1F06093C604A5
:102F00000E94C5129093C5048093C404C77081E0E9
:102F100001C0880FCA95EAF7DF91CF911F910F91F9
:102F20000C94CC0A8091C604681335C08091C40407
:102F30009091C5040E94C509883C910560F510E296
:102F40001D0FCD17B9F080E28C0F883040F4C770A8
:102F500081E001C0880FCA95EAF70E94C10A1830C3
:102F600048F481E09D2F977001C0880F9A95EAF789
:102F70000E94CC0A802F0E945817183098F4D770FE
:102F800081E001C0880FDA95EAF7DF91CF911F91B8
:102F90000F910C94C10AC77081E001C0880FCA95D7
:102FA000EAF7F3CFDF91CF911F910F9108955F92D0
:102FB0006F927F928F929F92AF92BF92CF92DF9249
:102FC000EF92FF920F931F93CF93DF9300D000D027
:102FD0000F92CDB7DEB76C01FC0183819481892B00
:102FE00031F08081918189238F3F09F055C50F9081
:102FF0000F900F900F900F90DF91CF911F910F9135
:10300000FF90EF90DF90CF90BF90AF909F908F9008
:103010007F906F905F9008950E946F0F182F682F18
:1030200089819A810E948B0A69817A81812F0E940D
:10303000F10D8C01F6018281882309F422C5C801B3
:1030400082519F45409708F0C2C48FEF93E00E94E1
:10305000E12A025197ECA92E92E0B92E8111C7CF37
:10306000011134C01C821B82662463948AE0582EAE
:1030700085010F5F1F4FC5010E94E12A89831A82D3
:10308000882309F4B4CF9FEF980F933070F58A83AB
:10309000698232E0A30EB11CC8010E94E12A8B8331
:1030A000882309F4A4CF8E010F5F1F4FF801208100
:1030B0002223F1F2213009F052C0918182819130B6
:1030C000B1F40E5F1F4F0E94581717C0A114F4E00F
:1030D000BF0609F48CCFC5010E94E12A811101C00D
:1030E00001502FEFA21AB20ABBCF5801DCCF9230A9
:1030F00039F40E5F1F4F0E94E2160F5F1F4FD6CFAD
:10310000933029F40E5F1F4F0E94A916F6CF94301A
:1031100019F00F5F1F4FF1CF0E5F1F4F30E020E01F
:10312000B8016F5F7F4FF80141818053990B8A305E
:10313000910550F02150310900F38FE99FE001978C
:10314000F1F700C00000F6CF529EF001539EF00D43
:1031500011249C012E0F3F1F842F8B01E1CFE22F02
:10316000F0E0E158F24F7490822F8695869586950F
:1031700090E0FC01E159F24FE4902770F12C022E0F
:1031800002C0F594E7940A94E2F7E1E0EE22FF240E
:10319000FC01E15AF24FC490D12C022E02C0D5940A
:1031A000C7940A94E2F7F1E0CF22DD24FC01E15B51
:1031B000F24F8490912C02C0959487942A95E2F75F
:1031C00021E082229924E114F10419F081EE0E9499
:1031D000E216C114D10419F086EE0E94E216872D82
:1031E0000E945817CD2819F086EE0E94A916EF28E4
:1031F00019F081EE0E94A916892809F47ECF8CE28D
:1032000062CF81E00E945E1303C081E00E943B1305
:103210000F900F900F900F900F90DF91CF911F9113
:103220000F91FF90EF90DF90CF90BF90AF909F9065
:103230008F907F906F905F900C941F1382E0E2CF8D
:10324000E491A091EC04B0E0A351BB4FEC938091CA
:10325000EC04813039F48FE78093F1048093F0041B
:103260008093EF048091EC048F5F8093EC04D9C3CA
:10327000053FECE51E0709F474C008F46EC0063F74
:103280002CE5120709F471C0F6018281882309F444
:1032900014C41092C6040230FCE51F0708F447C1AD
:1032A00006312CE5120738F098012A5F3C45293099
:1032B000310508F03CC10E94BD0D90933E02809301
:1032C0003D0200313CE5130709F400C108F091C04C
:1032D00008305CE5150709F4EBC008F060C0043065
:1032E0009CE5190709F4DCC008F046C00230FCE593
:1032F0001F0709F4CFC080913D02826003301C4556
:1033000009F4CBC060913D0210913E0284E090E050
:103310000E94EF2A612F82E290E00E94EF2A0F9034
:103320000F900F900F900F90DF91CF911F910F9101
:10333000FF90EF90DF90CF90BF90AF909F908F90D5
:103340007F906F905F900C94891327E245EE65EEB5
:1033500081C326E241EE60EE7DC327E245EE64EED6
:1033600079C326E241EE62EE75C327E245EE66EED2
:1033700071C328E241E0EBCF80913D0280610630CD
:103380003CE5130709F489C080913D02886007304D
:103390001C4508F482C080913D0280627EC080910D
:1033A0003D028D7F0C305CE5150709F476C070F4A2
:1033B00080913D028C600A309CE5190709F46DC0CC
:1033C00008F47AC080913D028E7F67C080913D02F3
:1033D000877F0E30FCE51F0709F45FC080913D0236
:1033E0008B7F0F301C4508F458C080913D028F7EC2
:1033F00054C00B3F3CE5130709F456C030F50331C8
:103400005CE5150709F46AC078F401319CE51907F9
:1034100009F460C002311C4509F074CF0E94891381
:1034200080913D028F7739C00531FCE51F0709F413
:103430005DC008F471C080913E0281600A3F1C4566
:1034400009F060CF80933E025DCF0F3F4CE514073B
:1034500009F448C070F40D3F8CE5180799F180918C
:103460003E028E7F0E3F1C4568F380913E028360D2
:10347000E9CF0130EDE51E0709F457C008F442C05A
:1034800060E002301D4509F03DCF8EE090E00E94E3
:10349000EF2A38CF80913D02816080933D0232CF88
:1034A00080913D028460F9CF80913E028260CACF54
:1034B00080913D028064F1CF0E94891380913D028A
:1034C0008068EBCF80913E028D7FBCCF80913D0222
:1034D0008F7DE3CF80913D028F7BDFCF80913D02D6
:1034E000837FDBCF80913E028C7FACCF80913D0209
:1034F00082FB992790F921E0922790FB82F990FBBB
:1035000083F9CBCF80913E02982F909591708E7F5A
:10351000892B90FB81F996CF0E94891390913D02EF
:10352000892F97FB87F98058B8CF61E0AECF06317D
:103530003CE5130709F0CEC2809121028A7A91E01E
:1035400009F490E09093AF0169E2811165E386E8A8
:1035500091E00E940A0A0F900F900F900F900F9029
:10356000DF91CF911F910F91FF90EF90DF90CF905F
:10357000BF90AF909F908F907F906F905F900C94D2
:103580003F0A0E9489134FEF54E38CE041505040B2
:103590008040E1F700C000000E94DF100F900F9004
:1035A0000F900F900F90DF91CF911F910F91FF908F
:1035B000EF90DF90CF90BF90AF909F908F907F90D3
:1035C0006F905F900C942711C8010E94630AF82E37
:1035D00098C2092F0F70907F11F00295007F812F04
:1035E0002223C9F0002369F090E2910F983010F087
:1035F00011110BC080912102082B009321020E941F
:103600003F0A812F0E94E21617C080912202082BE8
:1036100000932202F4CF0E94A916002369F00095BE
:10362000105E183010F0B11025C0809121020823DF
:10363000009321020E943F0A98E0E91AF108E4E0B1
:10364000EE16F10408F0D3CC0F900F900F900F906E
:103650000F90DF91CF911F910F91FF90EF90DF902E
:10366000CF90BF90AF909F908F907F906F905F9022
:103670000C94020B80912202082300932202DACFDD
:10368000892F8F70907F903211F08295807FF1E0CA
:10369000BF120CC0222329F0363070F60E94CC0AEB
:1036A000CBCF353048F60E94C10AC6CF222341F065
:1036B0003323A1F340FFA5CF4F70F6014583EECF32
:1036C000332389F3193309F07AC1FFEF27EE33E092
:1036D000F15020403040E1F700C00000812F0E94EF
:1036E000A916AACF892F86958695837061F08130BF
:1036F00009F0A2CF812F9370211102C090E080E0E9
:103700000E94D60A99CF812F9370211102C090E0B8
:1037100080E00E94EC0A90CF812F222329F00E94A2
:10372000F10B0E94D11288CF0E94320BFACF892F61
:10373000837009F065C021117FCF812F8295869516
:103740008770880F880F412F4F7050E070E060E065
:10375000082E04C0440F551F661F771F0A94D2F726
:1037600014FF2CC00FE010E020E030E004C0000F98
:10377000111F221F331F8A95D2F7009510952095AF
:103780003095969596959370923039F1F8F4809033
:10379000230290902402A0902502B090260291303E
:1037A00089F0402B512B622B732BCB01BA0168217E
:1037B00079218A219B210E947F133ECF00E010E0F7
:1037C0009801DFCF482959296A297B29CB01BA0101
:1037D000602B712B822B932BEECF402B512B622B26
:1037E000732B009123021091240220912502309125
:1037F0002602CB01BA016027712782279327DBCFEE
:103800008695222311F0892F8170882309F414CF23
:10381000812F829586958770880F880F412F4F7072
:1038200050E070E060E0082E04C0440F551F661F92
:10383000771F0A94D2F714FF2CC00FE010E020E0AD
:1038400030E004C0000F111F221F331F8A95D2F7EA
:103850000095109520953095969596959370923099
:1038600039F1F8F48090C7049090C804A090C9047E
:10387000B090CA04913089F0402B512B622B732BEE
:10388000CB01BA01682179218A219B210E9415135D
:10389000D3CE00E010E09801DFCF482959296A29EA
:1038A0007B29CB01BA01602B712B822B932BEECF9E
:1038B000402B512B622B732B0091C7041091C8042D
:1038C0002091C9043091CA04CB01BA016027712745
:1038D00082279327DBCF092F0F70222329F0802F17
:1038E0000E945E13812FDACE812F0E94C10A802FA1
:1038F0000E943B13A1CE812FE1EF1E1709F442C0B5
:10390000E11758F0F0EF1F17F1F0222309F44BC034
:10391000311177CE892F8F713AC042EF1417D1F150
:1039200053EF1513F2CF2223D1F1292F2F7161E02C
:1039300070E080E090E004C0660F771F881F991F39
:103940002A95D2F7A3CF2223C9F0353008F074CEE0
:10395000292F2F7161E070E080E090E004C0660FD5
:10396000771F881F991F2A95D2F70091C7041091DD
:10397000C8042091C9043091CA04A8CF363008F099
:103980005BCEE6CF892F8F71222309F4B1CF0E943D
:103990005E1352CE892F8F712223C9F3A9CF60E025
:1039A00070E0CB0173CF332379F0893341F48FEF8B
:1039B00097EEE3E081509040E040E1F78DCE8FE557
:1039C0009AEE0197F1F788CE892F8F7191CF003150
:1039D000FFE51F0709F415CC01312FE5120709F4A3
:1039E0002DCC8091EC04F801013F110510F0E0EFBF
:1039F000F0E0E150F24F843008F422CC8091EF04E3
:103A00008093EE048091F0048093EF048091F104A0
:103A10008093F004E491A091EC04B0E0A351BB4F7B
:103A2000EC93033F3CE5130709F493CC08F020CC5A
:103A3000083D5CE5150709F488CC093D8CE51807BD
:103A400009F497CC073D9CE5190709F01DCC26E247
:103A500041EE61EEC6010F900F900F900F900F9006
:103A6000DF91CF911F910F91FF90EF90DF90CF905A
:103A7000BF90AF909F908F907F906F905F900C94CD
:103A8000731700313FE5130709F4BFCB01314FE550
:103A9000140739F682E0BACB85E0DE011196019079
:103AA0000D928A95E1F7F601228189819A8121118F
:103AB000B3CA0E94630A182FB7CA06311C4599F48D
:103AC0008091AF0169E2811165E386E891E00E948F
:103AD000E00941CD01152CE5120709F452CD0E3D48
:103AE0001C4509F45BCDF60100811181882309F49E
:103AF0006BCDC8010E946F0FF82E682FC8010E947D
:103B00008B0AB8018F2D0E94FE0D182FB82EF601DA
:103B100022814581342F32953F70892F82958F7095
:103B2000E82EF12C8C3008F087CDF701E35CF44DE2
:103B30000C94B92A1F93CF93DF938091B601807FB5
:103B4000A9F48091B301882389F08091E801D09194
:103B5000B7016091B1017091B201A091B401B0912F
:103B6000B501C62FC72316E0D81304C0DF91CF914B
:103B70001F91089590E0109711F0CF3F19F401962E
:103B80008770F2CF189F9001199F300D1124F90111
:103B9000E854FE4F41814713F2CF40814613EFCFE7
:103BA00042814111ECCF438154814A1B5B0B483C5D
:103BB000510528F78091B6018F7080618093B6011E
:103BC000F901E354FE4F80818F708061808381EB27
:103BD00091E00E94D717DF91CF911F910C94B70A03
:103BE000AF92BF92CF92DF92EF92FF920F931F930B
:103BF000CF93DF93CDB7DEB761970FB6F894DEBFF2
:103C00000FBECDBF8C0185E0F801DE011D9601904D
:103C10000D928A95E1F7F80180819181E28021EB94
:103C2000A22E21E0B22E6091B4017091B501611510
:103C3000710509F43EC13091B1014091B201232FC9
:103C400024232F3F09F435C1C380D480F090B30101
:103C5000F601E61BF70BFF2009F4FBC02091B6012B
:103C6000522F507FE83CF10508F0BBC0511178C0DD
:103C7000FE2C491321C038131FC0E1101DC02F7046
:103C800020612093B601C5010E94D7178091B6012B
:103C9000F80185838F2D61960FB6F894DEBF0FBEB5
:103CA000CDBFDF91CF911F910F91FF90EF90DF90EB
:103CB000CF90BF90AF900895CD2829F0282F2923C9
:103CC0002F3F09F014C120E0F22FF170DF2E20FF0A
:103CD0003DC02091E8014091B70156E0241315C082
:103CE0008D879E878D859E850E94B10F292F2295F5
:103CF0002F702230F8F0243020F59F70F9F0F80191
:103D00009581907FD9F4D12C1FC030E0529FF001F3
:103D1000539FF00D1124E854FE4F6181961306C0A5
:103D20006081861303C06281E61210C02F5F3F4F8F
:103D30002770D4CF9F7011F0882329F3805E8830DC
:103D400010F3C8010E94D717FD2CA4CFEE2009F470
:103D5000A1CF8091B60181608093B601F12C9ACFFA
:103D6000491312C0381310C0E1100EC0F8012583AA
:103D7000C8010E94D71786E0F801A1EBB1E00190DD
:103D80000D928A95E1F786CF8D879E878D859E85DA
:103D90000E94BB0F882309F1EE20F9F08091B60153
:103DA000803270F02091B1013091B20138872F83B9
:103DB0001986DB86CA868C87CE0107960E94D717A4
:103DC00086E0F801A1EBB1E001900D928A95E1F750
:103DD0000E949A1DFF24F3945DCFC8010E94D7175B
:103DE000F9CF51110AC081EB91E00E94D71786E00C
:103DF000F50111928A95E9F7B1CF49130FC0381335
:103E00000DC0E1100BC0F8012583C8010E94D7172F
:103E100086E0F50111928A95E9F73CCF8D879E8760
:103E20008D859E850E94BB0F8823B9F2EE20A9F2F2
:103E30008091B601803220F22091B1013091B2011F
:103E40003A8329831B82DD82CC828E83CE01019648
:103E5000B5CFE83CF105E0F6FE2CEE2009F4BDCF2D
:103E6000491316C0381314C08091B60180FD83CF6A
:103E7000982F907F09F47FCFF8018583903F09F454
:103E800077CF982F907F905F8F70892B858370CF2D
:103E90008D879E878D859E850E94BB0F811190CF57
:103EA0008091B60181608093B601C8010E94D71746
:103EB000F1CEEE2009F491CF8D879E878D859E856A
:103EC0000E94BB0FF82E882309F487CF86E0F80103
:103ED000A1EBB1E001900D928A95E1F78091B101DB
:103EE0009091B2010E94B10F0E949A1DD3CE21E0A1
:103EF0002E25EACE1F93CF93DF93CDB7DEB767971A
:103F00000FB6F894DEBF0FBECDBF342F4B8B252FDD
:103F10005C8B6D8B7E8B8F8B8E899F89611110924C
:103F200022021A8A198A3D872E876F87998B888B80
:103F300086E0FE013D96DE01179601900D928A956E
:103F4000E1F7CE0107960E94F01D882389F016E064
:103F50008091E8019091B701891349C067960FB627
:103F6000F894DEBF0FBECDBFDF91CF911F910895B2
:103F700086E0FE013796DE01119601900D928A953A
:103F8000E1F78A859B85892B11F38F819885892399
:103F90008F3FE9F22091B70130E0C90101968770A7
:103FA00099274091E8014817190671F40E94891376
:103FB0001092B7011092E80186E0E1EBF1E0DF0139
:103FC0001D928A95E9F7C3CF96E0929FD001939F07
:103FD000B00D1124A854BE4FFE01319601900D92F0
:103FE0009A95E1F78093B7010E94B70AB0CF819FFD
:103FF000C001112488549E4F0E94F01D882309F4AB
:10400000ADCF8091E80190E0019687709927809369
:10401000E8019ECF8F929F92AF92BF92CF92DF9294
:10402000EF92FF920F931F93CF93DF9300D000D0B6
:1040300000D0CDB7DEB707E011E08FE2C82E82E0F6
:10404000D82E4601F12CAA24A394B12CD8018D912D
:104050008D01F894E82FE295EF70F0E021A18F70C8
:10406000A50102C0440F551F8A95E2F7CA01922F9D
:10407000982B91A392A18095892382A3789400C064
:10408000E0E0F1E030E020E0E12C4191A42FA295A6
:10409000AF70B0E090968C9190E04F7002C0959513
:1040A00087954A95E2F780FD48C08A2D022E01C00F
:1040B000880F0A94EAF7E82A2F5F3F4F273031052F
:1040C00021F7F801319780810E944B0C50EA5A95F4
:1040D000F1F7D4018C91E81691F1EC9281E0F82A85
:1040E000BFEF8B1A9B0AE1E00D301E0709F0AECF3F
:1040F00010913C02FF2029F181E08093A8010E94E9
:10410000C5129093A7018093A6018091A60190917A
:10411000A7010E94C5090697C0F0E12FF0E0E7571C
:10412000FB4FD6018D916D018193B5E3CB16B2E0C3
:10413000DB06B9F71092A80108C080E0BCCF80E090
:10414000CECF8091A8018111E0CF0E940311E82E0B
:1041500060913C02882309F460C08E010F5F1F4FFD
:1041600086E0F80111928A95E9F7862F90E0B80170
:1041700087579B4F0E94BD27811132C08091A901B2
:104180008F5F8093A901863008F445C0E0913B021F
:10419000F0E0E757FB4F90E080E011920196863007
:1041A0009105D9F780916B04811103C081E0809360
:1041B000EC04F11001C0FE2C8F2D26960FB6F8945A
:1041C000DEBF0FBECDBFDF91CF911F910F91FF904A
:1041D000EF90DF90CF90BF90AF909F908F90089519
:1041E0001092A901A0913B02B0E0A757BB4F9E01DE
:1041F000295F3F4FE12C4D91F80191918F014917B3
:1042000031F0AD0141505109FA019083E82E201799
:10421000310789F7C7CFE12CC5CF70E067577B4FD7
:1042200080913B0290E087579B4F0E941A28C1CF94
:10423000CDB7DEB7AF970FB6F894DEBF0FBECDBFD8
:1042400084B7877F84BF0FB6F894A89580916000EB
:10425000886180936000109260000FBE80E890E05B
:104260000FB6F89480936100909361000FBE85B7FC
:10427000806885BF85B7806885BF80EC99E09093A2
:104280008501809384010E9436080E940109809173
:10429000E20084608093E20078948091BA048823DD
:1042A000A1F01091E9001F709091EC00892F8170AE
:1042B00090FD80E8182B1092E9008091E80083FDC2
:1042C0000E949E131F701093E90082E084BD93E06A
:1042D00095BD9AEF97BD80936E0010922B021092BD
:1042E0002C0210922D0210922E0281E08093130175
:1042F0000E94031181110E94B12780911301811145
:1043000031C0FE01379686E0DF011D928A95E9F7FC
:1043100084E9898386E68A8387E98B8386EC8C83AC
:1043200084E38D8385E38E833697A7E0B1E0CE01E9
:104330000D9621912D938E179F07D9F787E0EEE216
:10434000F1E0DE01919601900D928A95E1F7FE0170
:10435000B196A0E0B1E0CE01889621912D938E1701
:104360009F07D9F78091130196E0811190E0909317
:104370003C0286E0891B80933B0207E011E0F801D4
:1043800081918F010E944B0CF1E00D301F07B9F7AE
:1043900000E011E0D8018D918D010E944B0CB1E03D
:1043A00007301B07B9F7EFE2F2E08BE392E0A9E8F0
:1043B000B4E011921D928E179F07D9F790E080E02C
:1043C0000E94E92A8A3E9E4F11F00E94271182E046
:1043D00090E00E94E12A80937C040E94BD0D90939E
:1043E0003E0280933D020E940A208FE39CE90197E0
:1043F000F1F700C000000E940A208091890480FF2C
:1044000017C06FEF83E290E00E94EF2A6FEF84E223
:1044100090E00E94EF2A6FEF85E290E00E94EF2A81
:104420006FEF7FEF90E080E00E940D2B0E94DF1085
:1044300083E090E00E94E12A682F70E090E080E045
:104440000E947F130E940311811102C00E94B727AE
:1044500083E290E00E94E12A813209F025C584E2DE
:1044600090E00E94E12A803109F01EC585E290E0CB
:104470000E94E12A833009F017C565E371E08DEEF3
:1044800094E00E94DA2A8FE78093EE048093EF0491
:104490008093F0048093F10481E08093EC0482E047
:1044A0008093630480E8809342020E946D286DE04F
:1044B00070E081E19FE00E94650D892BC9F5809134
:1044C000630463E070E081FD7EC28EE09FE00E94A5
:1044D000650D892B69F56DE070E08EEF9EE00E941E
:1044E000650D892B29F50E94D409605A75418F4FBB
:1044F0009F4F60936704709368048093690490935E
:104500006A04E3E6F2E080E092E0DF019C011D92A4
:1045100021503040E1F78FEF9FEF90936604809336
:10452000650481E080936E0480936B0410926404B0
:1045300060913D02606860933D0210913E0284E00C
:1045400090E00E94EF2A612F82E290E00E94EF2A21
:104550008BE191E09093400280933F0289E894E0E0
:104560003CE0380F3DA78091BA0400E112E18530AC
:1045700009F462C20E940A20D82E81110E94D40937
:104580000DE714E069E8E62E64E0F62EB12CA12CCC
:10459000F70171907F01D8018C90871461F1872415
:1045A000912CCC24C3948C2D882101F10E940311FD
:1045B0008823A1F099A2AAA291E08C2D872109F469
:1045C00090E09BA30E94C5128160782F9DA38CA3CD
:1045D00049A15AA16BA18DA10E947A1FF801808187
:1045E0008C258083B394F3E0FB15E8F09394CC0C16
:1045F00027E09212D8CFA3940F5F1F4F3CE0A31285
:10460000C7CFB11010C08FEF88A789A71AA60E9444
:10461000C5128160782F9CA78BA748A559A56AA5CC
:104620008CA50E947A1F80916E04882309F4CDC066
:1046300080916C0490916D040E94C509C29708F4A2
:1046400091C00E94C51290936D0480936C045EE14A
:10465000A52E5FE0B52EF12CE12C10E000E0F50175
:10466000E00FF11F8491B701600F711F0E940E0BC4
:104670000F5F1F4F0032110591F740E8E40EF11C67
:1046800080E2A80EB11CE11492E0F90631F78091A6
:10469000C7049091C804A091C904B091CA04AD01A7
:1046A0006627772710E0411551056105710519F05E
:1046B000DB01CA0110E1492F5A2F6B2F77274115D3
:1046C00051056105710519F0185FDB01CA01AC01E4
:1046D000BD0124E076956795579547952A95D1F7C2
:1046E000411551056105710519F01C5FDB01CA0117
:1046F000AC01BD0102E076956795579547950A95FF
:10470000D1F7411551056105710519F01E5FDB01F7
:10471000CA01B695A79597958795892B8A2B8B2BE0
:1047200009F01F5F26E04CE06EE37FE080E00E942E
:10473000A50C26E04CE060E37FE0113081F026E03C
:104740004CE067E37FE0112351F028E040E067E2AE
:104750007FE0123021F028E040E06EE17FE081E070
:104760000E94A50C20916504309166042115310545
:1047700039F08091640461E070E0882309F467C136
:1047800080916B04882309F10E94D4090091670489
:10479000109168042091690430916A04601B710BC8
:1047A000820B930B6F3F7F4F8F4F9F4770F4809129
:1047B0006E04882351F062E070E085E49FE00E947F
:1047C000650D892B11F410926B04D1100E94950D88
:1047D00086E0E5E7F4E0DE01119601900D928A95FE
:1047E000E1F7F0907704E09078041091790400915B
:1047F0007A0410927704109278041092790410923F
:104800007A048F2D8E2909F448C080917304909109
:1048100074040E94C5099C0190917204992309F4C3
:1048200069C325313105C8F19F3F19F09F5F90930F
:104830007204FF2059F00E94CD0B9FEF1F140CF45F
:1048400091E0899F802D112480937704EE2059F008
:104850000E94CD0B9FEF1E140CF491E0899F802DD8
:10486000112480937804309177043323B1F02091A0
:104870007804222391F045EB3403C00111249923DD
:1048800009F4B0C19093770445EB240390011124FF
:10489000332309F4ABC130937804812F802B09F4C2
:1048A00048C080917004909171040E94C5099C01D8
:1048B00090916F04992309F419C325363105C8F185
:1048C0009F3F19F09F5F90936F04112359F00E944E
:1048D000AB0B9FEF11160CF491E0899F802D1124F2
:1048E00080937904002359F00E94AB0B9FEF1016C0
:1048F0000CF491E0899F802D112480937A043091EB
:1049000079043323B1F020917A04222391F045EB0E
:104910003403C0011124992309F46CC190937904E4
:1049200045EB240390011124332309F467C130932C
:104930007A048091770490917804892B909179047E
:10494000892B90917A04892B11F00E94D11286E074
:10495000FE013196A5E7B4E001900D928A95E1F74A
:104960000E94020B90917B04891721F00E94020B98
:1049700080937B048091BA04843009F0F4CD83E005
:104980008093E9008091E80082FFEDCD8091E800FE
:1049900090E085FF06C00E945508882309F432C1C3
:1049A00091E08091E8008B778093E800992309F4E7
:1049B000DACDE981E150E33108F095C1F0E0E75B41
:1049C000F44D0C94B92A8BE09FE081CD8091BA041C
:1049D000843021F11092410288E190E0A0E40FB60A
:1049E000F894A895809360000FBEA093600083B7F1
:1049F000817F846083BF83B7816083BF789488950B
:104A000083B78E7F83BF0FB6F894A895809160001E
:104A1000886180936000109260000FBE8091B9049D
:104A2000882351F00E940A20E9E8F4E08191811185
:104A300025C2BDA5BE13FACF8091BA04853009F412
:104A4000C5CF0E9489130E94020B94CD8F5F082F5F
:104A500010E07B01082E02C0EE0CFF1C0A94E2F766
:104A6000A9014E215F21452B89F39091630490FDAC
:104A700043C08295880F8076809316019801369501
:104A800027953695279520931901815E809317010C
:104A900010921A0124E630E047E050E064E171E052
:104AA00088E70E94FE28892B09F06ACEA80175E0EC
:104AB000440F551F7A95E1F78091630480FD2AC069
:104AC0004D595D4F04E610E020E230E060E488E7F5
:104AD0000E942529892B09F053CE0E94950DE09460
:104AE000F0948091650490916604E822F922F09296
:104AF0006604E092650444CE880F880F880F809387
:104B0000160110921901895F8093170183E0809349
:104B10001A01C0CFE3E4F2E080E2DF011D928A9542
:104B2000E9F7E1E7F1E0FFA7EEA70DE611E035E7D1
:104B3000232E31E0332E67E0962E88248394AEA591
:104B4000BFA52D91BFA7AEA7F80141908F01440EDC
:104B5000552E511CC2018D599D4F2C01E22FF0E0C2
:104B6000ED5BFD4F30E020E0692C621AC82C022E6C
:104B700001C0CC0C0A94EAF7520190E0D5018D9166
:104B80005D018C21662D691B6770762E062E000C48
:104B9000770BB82F01C0BB0F7A94EAF77B2E719583
:104BA000619571096770772701C086956A95EAF764
:104BB000782A8081782A70829F5F9830F9F62F5F7B
:104BC0003F4F31962830310579F6EEA5FFA52E1618
:104BD0003F0609F0B4CF04E610E020E230E043E401
:104BE00052E074CF81E0809377044ECE81E08093D1
:104BF000780453CE81E08093790492CE81E0809353
:104C00007A0497CE00E210E0CE0101967C018091FB
:104C1000E80085FD0AC08091E8008B778093E8006A
:104C20000E945508882399F3BBCE8091F100D701EB
:104C30008D937D010150110951F7B2CE1A8289E09E
:104C40008B8311C08A81823009F447C1833091F18E
:104C5000813009F048C00E94D4090E94BF2A6B83AA
:104C60007C838D839E838091BA04843009F07BCC51
:104C70001091E9001F709091EC00892F817090FDD8
:104C800080E8182B82E08093E9008091E80080FFA3
:104C90000DC050E040E060E270E0CE0101960E945D
:104CA00086088091E8008E778093E8001F7010934B
:104CB000E90059CCDE011396E9E8F4E081918D9387
:104CC00024E0E539F207D1F7CECF8A81823059F45A
:104CD0006B817C818D819E810E94BF2A86E290E05B
:104CE0000E94EF2AC0CF8FEF8983BDCF4C816B81AB
:104CF0008A810E94CB0D9827892798279E838D83D0
:104D0000B2CFED80FE80FE24EF24FE248A810B8149
:104D10003EE0039F8001112448EA849F000D111D8D
:104D200011248C8190E0880F991F080F191F6F2D97
:104D3000C80187960E94EF2A6E2DC8018896D0CFB1
:104D40000E94DF0F90CF80E18A838DCF81E08A833C
:104D500089E376CF0A811B81102701271027CE0116
:104D600001967C01CC80DC01AC0DB11D6D01C80148
:104D700089539D4FCE14DF0409F475CF0933B1E098
:104D80001B0750F40E94E12AF70184830F5F1F4F35
:104D9000BFEFEB1AFB0AEBCFD70114961C92F6CFAC
:104DA0000A811B81102701271027FE0131966F0110
:104DB000EC80E00EF12EF11CC80189539D4FE016E6
:104DC000F10609F450CF0933F1E01F0728F4D601AA
:104DD00014966C910E94EF2ABFEFCB1ADB0A0F5F8B
:104DE0001F4FEACF0E9434103ECF84E0ADCF0A813E
:104DF0001B81102701271027FE0131967F01CC80EF
:104E00009F012C0D311D6901C8018796CE14DF0466
:104E100009F429CF003A32E0130758F40E94E12A3E
:104E2000D70114968C930F5F1F4FFFEFEF1AFF0A05
:104E3000EBCFF7011482F7CF0A811B8110270127DE
:104E400010279E012F5F3F4F6901EC80E00EF12E8D
:104E5000F11CC80187960E151F0509F404CF003A0E
:104E600032E0130728F4D60114966C910E94EF2AC1
:104E7000BFEFCB1ADB0A0F5F1F4FEBCF09BD19BD88
:104E800009B400FEFDCF8091D8008F7D8093D800BB
:104E90008091E00082608093E0008091E00081FDDD
:104EA000FCCF0E948913C8CD60E086E290E00E94AA
:104EB000EF2A0E94DF0F0E94341061E283E290E04B
:104EC0000E94EF2A60E184E290E00E94EF2A63E012
:104ED00085E290E00E94EF2AD0CA86E290E00E942C
:104EE000E12A1B821C821D828E83BDCE232B09F0FA
:104EF000E9CC1FCD232B09F099CCCFCC1F921FB644
:104F00001F9211248F939F93AF93BF93809141027F
:104F1000811113C08091270290912802A09129024B
:104F2000B0912A024196A11DB11D80932702909352
:104F30002802A0932902B0932A02BF91AF919F91BA
:104F40008F911F901FBE1F90189580932202089585
:104F50008091220208958093210208958091210278
:104F6000089561E070E086E291E00C94B72961E079
:104F700070E086E291E00C94BE290F931F93CF93CB
:104F8000DF93D82FC92F8B010E94582A009709F070
:104F90004FC0D801ED2FFC2FEC01CC51DB4F288105
:104FA0002D932191EC01C453DB4F2E830196863063
:104FB000910591F70E94AE278093CC040E94A82708
:104FC0008093CD0490E080E0FC01E351FB4F208111
:104FD000FC01E453FB4F2487019687309105A1F72C
:104FE0008091C7049091C804A091C904B091CA04EB
:104FF0008093DF049093E004A093E104B093E20473
:105000008091EC048093E3040E9469126E5F7F4FED
:105010008F4F9F4F6093CE047093CF048093D00442
:105020009093D10481E0DF91CF911F910F9108956A
:1050300080E0F9CF0F931F93CF93DF93D82FC92F21
:105040008B016091CE047091CF048091D004909137
:10505000D1040E948412D801ED2FFC2F90E080E053
:105060002D91EC01CC51DB4F2883EC01C453DB4F75
:105070002E81219301968630910591F78091CC0481
:105080000E94AB278091CD040E94A52790E080E08C
:10509000FC01E453FB4F2485FC01E351FB4F2083CB
:1050A000019687309105A1F78091DF049091E0048B
:1050B000A091E104B091E2048093C7049093C804E6
:1050C000A093C904B093CA048091E3048093EC04D4
:1050D000DF91CF911F910F9108951092B9008CE04C
:1050E0008093B8000895EF92FF920F931F93CF9390
:1050F000DF93182FEB011092BC0084EA8093BC0070
:105100000E94C5127C018091BC0087FF27C080915E
:10511000B900887F883029F08091B900887F80317C
:10512000D9F51093BB0084E88093BC000E94C5129F
:105130008C018091BC0087FF24C02091B900287F9A
:1051400090E080E02831B1F081E090E0203411F46B
:1051500090E080E09195819591090CC0CF3FDC07EC
:1051600091F20E94C5128E199F098C179D0758F263
:105170008EEF9FEFDF91CF911F910F91FF90EF90F6
:105180000895CF3FDC07A9F20E94C512801B910B46
:105190008C179D0770F2ECCF8FEF9FEFEBCF0F9343
:1051A0001F93CF93DF93EB018093BB0084E8809340
:1051B000BC000E94C5128C018091BC0087FF11C009
:1051C0002091B900287F81E090E0283211F490E02E
:1051D00080E0919581959109DF91CF911F910F9179
:1051E0000895CF3FDC0741F30E94C512801B910B4D
:1051F0008C179D0708F38EEF9FEFEECFCF92DF92D3
:10520000EF92FF920F931F93CF93DF936B018A016D
:105210007901B9010E947328E6010C0D1D1DC0170C
:10522000D10761F424E92093BC00DF91CF911F9155
:105230000F91FF90EF90DF90CF90089597FDF2CF00
:10524000B70189910E94CF28EACFCF92DF92EF92E7
:10525000FF920F931F93CF93DF93C62F6A017901BB
:10526000B8010E94732897FD0CC0B8018C2F0E94D2
:10527000CF28E601EC0CFD1CCE15DF0511F097FFE1
:105280000CC024E92093BC00DF91CF911F910F91B6
:10529000FF90EF90DF90CF900895B80189910E9420
:1052A000CF28EACF84E98093BC0008958EE14A9B21
:1052B00002C08150E1F74A9BFECF08955A9880E2E0
:1052C0008A95F1F75A9A0895FC013BE03A95F1F777
:1052D00098E020E080E031E040E14A95F1F7880F66
:1052E0004A9B02C08160232742E04A95F1F7000003
:1052F00040E14A95F1F7915079F790E19A95F1F7ED
:1053000099B132E03A95F1F7000040E14A95F1F7A2
:1053100092FB992790F992272081920F908308950C
:10532000EF92FF920F931F93CF93DF930F92CDB71E
:10533000DEB719828C017C01E60EF11C0E151F05EB
:1053400061F481E09981911180E00F90DF91CF911C
:105350001F910F91FF90EF9008950E945629CE0162
:1053600001960E946429F80181938F01E7CF909301
:10537000EB048093EA04529A5A9A08959093EB04AE
:105380008093EA0452985A9AEA9AE9E6F0E080811A
:105390008F7C808308956150770B91E001C0990F55
:1053A0006A95EAF720E031E0911108C0222391F0DC
:1053B0005A9A80E28A95F1F75A980895492F48231E
:1053C00039F05A9A232740E24A95F1F79695ECCFA7
:1053D0005A98F9CF5A98EDCFFF920F931F93CF931E
:1053E000DF93EC018C01060F111DC017D10731F4BA
:1053F000DF91CF911F910F91FF900895F9900E9436
:105400005E2968E08F2D0E94CB29EFCF1F920F926B
:105410000FB60F9211242F933F934F935F936F9387
:105420007F938F939F93AF93BF93CF93DF93EF932C
:10543000FF935A98529AC091EA04D091EB046D817F
:10544000662321F08E819F810E94EC290E945E29B3
:1054500080E18A95F1F75A9852985A9A80E18A9594
:10546000F1F76A81662309F18B819C810E94902962
:10547000E881F981882311F088E001C082E080830F
:105480000E945629FF91EF91DF91CF91BF91AF918B
:105490009F918F917F916F915F914F913F912F914C
:1054A0000F900FBE0F901F901895E881F981E4CFFF
:1054B000CF93DF93C091EA04D091EB04F894529A11
:1054C0005A9885E08A95F1F7000052985A9A80E23E
:1054D0008A95F1F74A9B0CC0529A5A9AE881F98151
:1054E00081E08083789481E090E0DF91CF9108950E
:1054F0006D81662381F08E819F810E9490298111A8
:105500000AC0529A5A9AE881F98182E0808378949D
:1055100082E090E0EACF0E94562980E28A95F1F776
:105520005A98529A80E18A95F1F76A81662321F0B0
:105530008B819C810E94EC290E945E29E881F9817F
:105540001082789490E080E0D0CF97FB072E16F47D
:10555000009407D077FD09D00E94C62A07FC05D029
:105560003EF4909581959F4F0895709561957F4F7A
:105570000895EE0FFF1F0590F491E02D099469271F
:10558000962769277827872778270895AA1BBB1BAA
:1055900051E107C0AA1FBB1FA617B70710F0A61B33
:1055A000B70B881F991F5A95A9F780959095BC0154
:1055B000CD010895FB01DC0101900D920020E1F77F
:1055C0000895F999FECF92BD81BDF89A992780B5CB
:1055D0000895A8E1B0E042E050E00C94152B262F8E
:1055E000F999FECF92BD81BDF89A019700B40216D9
:1055F00039F01FBA20BD0FB6F894FA9AF99A0FBE87
:1056000008950396272F0E94F02A0E94EF2A252F43
:105610000E94F02A242F0C94F02A0196272F0E9432
:10562000F02A0C94EF2ADC01CB01FC01F999FECFA2
:1056300006C0F2BDE1BDF89A319600B40D9241501A
:105640005040B8F70895F894FFCFCA0FCA0FD30F90
:10565000D30FD50FD30FD30FD30FCA0FCA0FDA0F43
:10566000D30FD30FDA0F8314AB14FE14AB14FE1454
:10567000DE141615FE1413162016E91AE91A401B3B
:10568000401B721B8C1B1C1B1C1B971B6B1C7B1C4D
:105690007B1C1E262226652676268126A0267326BA
:1056A0007326732673267326A326A626AA26D0263B
:0856B000F226F526F7261C275F
:1056B80036323331F7F6F5946697C6343500000074
:1056C800000000010021007F220003C2099F107E14
:1056D800107A10761001CB0418CC0406E404363294
:1056E8003331F7F6F55B202020205D00818283E2CC
:1056F80000E900EA00B500B600B700CD008301CC90
:10570800008A019201940121022302240225022623
:105718000227022A02B300B4006F007000000810CC
:1057280018181008004022B684016201AC00590F15
:04573800720F920F4B
:00000001FF
